{
  "_format": "hh-sol-artifact-1",
  "contractName": "MafiaMonkeysNFT",
  "sourceName": "contracts/MafiaMonkeysNFT.sol",
  "abi": [
    {
      "inputs": [],
      "stateMutability": "nonpayable",
      "type": "constructor"
    },
    {
      "anonymous": false,
      "inputs": [
        {
          "indexed": true,
          "internalType": "address",
          "name": "owner",
          "type": "address"
        },
        {
          "indexed": true,
          "internalType": "address",
          "name": "approved",
          "type": "address"
        },
        {
          "indexed": true,
          "internalType": "uint256",
          "name": "tokenId",
          "type": "uint256"
        }
      ],
      "name": "Approval",
      "type": "event"
    },
    {
      "anonymous": false,
      "inputs": [
        {
          "indexed": true,
          "internalType": "address",
          "name": "owner",
          "type": "address"
        },
        {
          "indexed": true,
          "internalType": "address",
          "name": "operator",
          "type": "address"
        },
        {
          "indexed": false,
          "internalType": "bool",
          "name": "approved",
          "type": "bool"
        }
      ],
      "name": "ApprovalForAll",
      "type": "event"
    },
    {
      "anonymous": false,
      "inputs": [
        {
          "indexed": false,
          "internalType": "address",
          "name": "sender",
          "type": "address"
        },
        {
          "indexed": false,
          "internalType": "uint256",
          "name": "tokenId",
          "type": "uint256"
        }
      ],
      "name": "NewMafiaMonkeysNFTMinted",
      "type": "event"
    },
    {
      "anonymous": false,
      "inputs": [
        {
          "indexed": true,
          "internalType": "address",
          "name": "previousOwner",
          "type": "address"
        },
        {
          "indexed": true,
          "internalType": "address",
          "name": "newOwner",
          "type": "address"
        }
      ],
      "name": "OwnershipTransferred",
      "type": "event"
    },
    {
      "anonymous": false,
      "inputs": [
        {
          "indexed": true,
          "internalType": "address",
          "name": "from",
          "type": "address"
        },
        {
          "indexed": true,
          "internalType": "address",
          "name": "to",
          "type": "address"
        },
        {
          "indexed": true,
          "internalType": "uint256",
          "name": "tokenId",
          "type": "uint256"
        }
      ],
      "name": "Transfer",
      "type": "event"
    },
    {
      "inputs": [
        {
          "internalType": "address",
          "name": "to",
          "type": "address"
        },
        {
          "internalType": "uint256",
          "name": "tokenId",
          "type": "uint256"
        }
      ],
      "name": "approve",
      "outputs": [],
      "stateMutability": "nonpayable",
      "type": "function"
    },
    {
      "inputs": [
        {
          "internalType": "address",
          "name": "owner",
          "type": "address"
        }
      ],
      "name": "balanceOf",
      "outputs": [
        {
          "internalType": "uint256",
          "name": "",
          "type": "uint256"
        }
      ],
      "stateMutability": "view",
      "type": "function"
    },
    {
      "inputs": [
        {
          "internalType": "uint256",
          "name": "tokenId",
          "type": "uint256"
        }
      ],
      "name": "getApproved",
      "outputs": [
        {
          "internalType": "address",
          "name": "",
          "type": "address"
        }
      ],
      "stateMutability": "view",
      "type": "function"
    },
    {
      "inputs": [
        {
          "internalType": "uint256",
          "name": "tokenId",
          "type": "uint256"
        }
      ],
      "name": "getRandomMonkeyImage",
      "outputs": [
        {
          "internalType": "string",
          "name": "",
          "type": "string"
        }
      ],
      "stateMutability": "view",
      "type": "function"
    },
    {
      "inputs": [
        {
          "internalType": "address",
          "name": "owner",
          "type": "address"
        },
        {
          "internalType": "address",
          "name": "operator",
          "type": "address"
        }
      ],
      "name": "isApprovedForAll",
      "outputs": [
        {
          "internalType": "bool",
          "name": "",
          "type": "bool"
        }
      ],
      "stateMutability": "view",
      "type": "function"
    },
    {
      "inputs": [],
      "name": "makeAnEpicNFT",
      "outputs": [],
      "stateMutability": "nonpayable",
      "type": "function"
    },
    {
      "inputs": [],
      "name": "name",
      "outputs": [
        {
          "internalType": "string",
          "name": "",
          "type": "string"
        }
      ],
      "stateMutability": "view",
      "type": "function"
    },
    {
      "inputs": [],
      "name": "owner",
      "outputs": [
        {
          "internalType": "address",
          "name": "",
          "type": "address"
        }
      ],
      "stateMutability": "view",
      "type": "function"
    },
    {
      "inputs": [
        {
          "internalType": "uint256",
          "name": "tokenId",
          "type": "uint256"
        }
      ],
      "name": "ownerOf",
      "outputs": [
        {
          "internalType": "address",
          "name": "",
          "type": "address"
        }
      ],
      "stateMutability": "view",
      "type": "function"
    },
    {
      "inputs": [],
      "name": "renounceOwnership",
      "outputs": [],
      "stateMutability": "nonpayable",
      "type": "function"
    },
    {
      "inputs": [
        {
          "internalType": "address",
          "name": "from",
          "type": "address"
        },
        {
          "internalType": "address",
          "name": "to",
          "type": "address"
        },
        {
          "internalType": "uint256",
          "name": "tokenId",
          "type": "uint256"
        }
      ],
      "name": "safeTransferFrom",
      "outputs": [],
      "stateMutability": "nonpayable",
      "type": "function"
    },
    {
      "inputs": [
        {
          "internalType": "address",
          "name": "from",
          "type": "address"
        },
        {
          "internalType": "address",
          "name": "to",
          "type": "address"
        },
        {
          "internalType": "uint256",
          "name": "tokenId",
          "type": "uint256"
        },
        {
          "internalType": "bytes",
          "name": "_data",
          "type": "bytes"
        }
      ],
      "name": "safeTransferFrom",
      "outputs": [],
      "stateMutability": "nonpayable",
      "type": "function"
    },
    {
      "inputs": [
        {
          "internalType": "address",
          "name": "operator",
          "type": "address"
        },
        {
          "internalType": "bool",
          "name": "approved",
          "type": "bool"
        }
      ],
      "name": "setApprovalForAll",
      "outputs": [],
      "stateMutability": "nonpayable",
      "type": "function"
    },
    {
      "inputs": [
        {
          "internalType": "bytes4",
          "name": "interfaceId",
          "type": "bytes4"
        }
      ],
      "name": "supportsInterface",
      "outputs": [
        {
          "internalType": "bool",
          "name": "",
          "type": "bool"
        }
      ],
      "stateMutability": "view",
      "type": "function"
    },
    {
      "inputs": [],
      "name": "symbol",
      "outputs": [
        {
          "internalType": "string",
          "name": "",
          "type": "string"
        }
      ],
      "stateMutability": "view",
      "type": "function"
    },
    {
      "inputs": [
        {
          "internalType": "uint256",
          "name": "tokenId",
          "type": "uint256"
        }
      ],
      "name": "tokenURI",
      "outputs": [
        {
          "internalType": "string",
          "name": "",
          "type": "string"
        }
      ],
      "stateMutability": "view",
      "type": "function"
    },
    {
      "inputs": [
        {
          "internalType": "address",
          "name": "from",
          "type": "address"
        },
        {
          "internalType": "address",
          "name": "to",
          "type": "address"
        },
        {
          "internalType": "uint256",
          "name": "tokenId",
          "type": "uint256"
        }
      ],
      "name": "transferFrom",
      "outputs": [],
      "stateMutability": "nonpayable",
      "type": "function"
    },
    {
      "inputs": [
        {
          "internalType": "address",
          "name": "newOwner",
          "type": "address"
        }
      ],
      "name": "transferOwnership",
      "outputs": [],
      "stateMutability": "nonpayable",
      "type": "function"
    }
  ],
  "bytecode": "0x6080604052604051806102c001604052806040518060800160405280605d8152602001620044dc605d913981526020016040518060800160405280605d8152602001620047c4605d913981526020016040518060800160405280605d815260200162004539605d913981526020016040518060800160405280605d8152602001620048db605d913981526020016040518060800160405280605d8152602001620043c5605d913981526020016040518060800160405280605d8152602001620045f3605d913981526020016040518060800160405280605d815260200162004197605d913981526020016040518060800160405280605d81526020016200487e605d913981526020016040518060800160405280605d8152602001620042ae605d913981526020016040518060800160405280605d81526020016200413a605d913981526020016040518060800160405280605d815260200162004422605d913981526020016040518060800160405280605d815260200162004650605d913981526020016040518060800160405280605d815260200162004596605d913981526020016040518060800160405280605d8152602001620041f4605d913981526020016040518060800160405280605d815260200162004368605d913981526020016040518060800160405280605d815260200162004251605d913981526020016040518060800160405280605d815260200162004821605d913981526020016040518060800160405280605d8152602001620046ad605d913981526020016040518060800160405280605d815260200162004767605d913981526020016040518060800160405280605d81526020016200470a605d913981526020016040518060800160405280605d81526020016200447f605d913981526020016040518060800160405280605d81526020016200430b605d91398152506009906016620002ca92919062000584565b50348015620002d857600080fd5b506040518060400160405280601181526020017f4d61666961204d6f6e6b657973204e46540000000000000000000000000000008152506040518060400160405280600f81526020017f4d414649414d4f4e4b4559534e4654000000000000000000000000000000000081525081600090805190602001906200035d929190620005eb565b50806001908051906020019062000376929190620005eb565b505050620003996200038d620003ea60201b60201c565b620003f260201b60201c565b620003e46040518060400160405280601b81526020017f54686973206973204d79204e465420436f6e74616374204c4f4c210000000000815250620004b860201b62000f4e1760201c565b62000836565b600033905090565b6000600760009054906101000a900473ffffffffffffffffffffffffffffffffffffffff16905081600760006101000a81548173ffffffffffffffffffffffffffffffffffffffff021916908373ffffffffffffffffffffffffffffffffffffffff1602179055508173ffffffffffffffffffffffffffffffffffffffff168173ffffffffffffffffffffffffffffffffffffffff167f8be0079c531659141344cd1fd0a4f28419497f9722a3daafe3b4186f6b6457e060405160405180910390a35050565b6200055881604051602401620004cf91906200074a565b6040516020818303038152906040527f41304fac000000000000000000000000000000000000000000000000000000007bffffffffffffffffffffffffffffffffffffffffffffffffffffffff19166020820180517bffffffffffffffffffffffffffffffffffffffffffffffffffffffff83818316178352505050506200055b60201b60201c565b50565b60008151905060006a636f6e736f6c652e6c6f679050602083016000808483855afa5050505050565b828054828255906000526020600020908101928215620005d8579160200282015b82811115620005d7578251829080519060200190620005c6929190620005eb565b5091602001919060010190620005a5565b5b509050620005e791906200067c565b5090565b828054620005f990620007c0565b90600052602060002090601f0160209004810192826200061d576000855562000669565b82601f106200063857805160ff191683800117855562000669565b8280016001018555821562000669579182015b82811115620006685782518255916020019190600101906200064b565b5b509050620006789190620006a4565b5090565b5b80821115620006a05760008181620006969190620006c3565b506001016200067d565b5090565b5b80821115620006bf576000816000905550600101620006a5565b5090565b508054620006d190620007c0565b6000825580601f10620006e5575062000706565b601f016020900490600052602060002090810190620007059190620006a4565b5b50565b600062000716826200076e565b62000722818562000779565b9350620007348185602086016200078a565b6200073f8162000825565b840191505092915050565b6000602082019050818103600083015262000766818462000709565b905092915050565b600081519050919050565b600082825260208201905092915050565b60005b83811015620007aa5780820151818401526020810190506200078d565b83811115620007ba576000848401525b50505050565b60006002820490506001821680620007d957607f821691505b60208210811415620007f057620007ef620007f6565b5b50919050565b7f4e487b7100000000000000000000000000000000000000000000000000000000600052602260045260246000fd5b6000601f19601f8301169050919050565b6138f480620008466000396000f3fe608060405234801561001057600080fd5b50600436106101165760003560e01c80638da5cb5b116100a2578063c87b56dd11610071578063c87b56dd146102cb578063de9d132f146102fb578063e985e9c514610305578063f2fde38b14610335578063fcdea7621461035157610116565b80638da5cb5b1461025757806395d89b4114610275578063a22cb46514610293578063b88d4fde146102af57610116565b806323b872dd116100e957806323b872dd146101b557806342842e0e146101d15780636352211e146101ed57806370a082311461021d578063715018a61461024d57610116565b806301ffc9a71461011b57806306fdde031461014b578063081812fc14610169578063095ea7b314610199575b600080fd5b61013560048036038101906101309190612440565b610381565b6040516101429190612a49565b60405180910390f35b610153610463565b6040516101609190612a64565b60405180910390f35b610183600480360381019061017e9190612492565b6104f5565b60405161019091906129b9565b60405180910390f35b6101b360048036038101906101ae9190612404565b61057a565b005b6101cf60048036038101906101ca91906122fe565b610692565b005b6101eb60048036038101906101e691906122fe565b6106f2565b005b61020760048036038101906102029190612492565b610712565b60405161021491906129b9565b60405180910390f35b61023760048036038101906102329190612299565b6107c4565b6040516102449190612d04565b60405180910390f35b61025561087c565b005b61025f610904565b60405161026c91906129b9565b60405180910390f35b61027d61092e565b60405161028a9190612a64565b60405180910390f35b6102ad60048036038101906102a891906123c8565b6109c0565b005b6102c960048036038101906102c4919061234d565b6109d6565b005b6102e560048036038101906102e09190612492565b610a38565b6040516102f29190612a64565b60405180910390f35b610303610b8a565b005b61031f600480360381019061031a91906122c2565b610ca4565b60405161032c9190612a49565b60405180910390f35b61034f600480360381019061034a9190612299565b610d38565b005b61036b60048036038101906103669190612492565b610e30565b6040516103789190612a64565b60405180910390f35b60007f80ac58cd000000000000000000000000000000000000000000000000000000007bffffffffffffffffffffffffffffffffffffffffffffffffffffffff1916827bffffffffffffffffffffffffffffffffffffffffffffffffffffffff1916148061044c57507f5b5e139f000000000000000000000000000000000000000000000000000000007bffffffffffffffffffffffffffffffffffffffffffffffffffffffff1916827bffffffffffffffffffffffffffffffffffffffffffffffffffffffff1916145b8061045c575061045b82610fe7565b5b9050919050565b60606000805461047290612f83565b80601f016020809104026020016040519081016040528092919081815260200182805461049e90612f83565b80156104eb5780601f106104c0576101008083540402835291602001916104eb565b820191906000526020600020905b8154815290600101906020018083116104ce57829003601f168201915b5050505050905090565b600061050082611051565b61053f576040517f08c379a000000000000000000000000000000000000000000000000000000000815260040161053690612c64565b60405180910390fd5b6004600083815260200190815260200160002060009054906101000a900473ffffffffffffffffffffffffffffffffffffffff169050919050565b600061058582610712565b90508073ffffffffffffffffffffffffffffffffffffffff168373ffffffffffffffffffffffffffffffffffffffff1614156105f6576040517f08c379a00000000000000000000000000000000000000000000000000000000081526004016105ed90612cc4565b60405180910390fd5b8073ffffffffffffffffffffffffffffffffffffffff166106156110bd565b73ffffffffffffffffffffffffffffffffffffffff16148061064457506106438161063e6110bd565b610ca4565b5b610683576040517f08c379a000000000000000000000000000000000000000000000000000000000815260040161067a90612ba4565b60405180910390fd5b61068d83836110c5565b505050565b6106a361069d6110bd565b8261117e565b6106e2576040517f08c379a00000000000000000000000000000000000000000000000000000000081526004016106d990612ce4565b60405180910390fd5b6106ed83838361125c565b505050565b61070d838383604051806020016040528060008152506109d6565b505050565b6000806002600084815260200190815260200160002060009054906101000a900473ffffffffffffffffffffffffffffffffffffffff169050600073ffffffffffffffffffffffffffffffffffffffff168173ffffffffffffffffffffffffffffffffffffffff1614156107bb576040517f08c379a00000000000000000000000000000000000000000000000000000000081526004016107b290612be4565b60405180910390fd5b80915050919050565b60008073ffffffffffffffffffffffffffffffffffffffff168273ffffffffffffffffffffffffffffffffffffffff161415610835576040517f08c379a000000000000000000000000000000000000000000000000000000000815260040161082c90612bc4565b60405180910390fd5b600360008373ffffffffffffffffffffffffffffffffffffffff1673ffffffffffffffffffffffffffffffffffffffff168152602001908152602001600020549050919050565b6108846110bd565b73ffffffffffffffffffffffffffffffffffffffff166108a2610904565b73ffffffffffffffffffffffffffffffffffffffff16146108f8576040517f08c379a00000000000000000000000000000000000000000000000000000000081526004016108ef90612c84565b60405180910390fd5b61090260006114c3565b565b6000600760009054906101000a900473ffffffffffffffffffffffffffffffffffffffff16905090565b60606001805461093d90612f83565b80601f016020809104026020016040519081016040528092919081815260200182805461096990612f83565b80156109b65780601f1061098b576101008083540402835291602001916109b6565b820191906000526020600020905b81548152906001019060200180831161099957829003601f168201915b5050505050905090565b6109d26109cb6110bd565b8383611589565b5050565b6109e76109e16110bd565b8361117e565b610a26576040517f08c379a0000000000000000000000000000000000000000000000000000000008152600401610a1d90612ce4565b60405180910390fd5b610a32848484846116f6565b50505050565b6060610a4382611051565b610a82576040517f08c379a0000000000000000000000000000000000000000000000000000000008152600401610a7990612c44565b60405180910390fd5b6000600660008481526020019081526020016000208054610aa290612f83565b80601f0160208091040260200160405190810160405280929190818152602001828054610ace90612f83565b8015610b1b5780601f10610af057610100808354040283529160200191610b1b565b820191906000526020600020905b815481529060010190602001808311610afe57829003601f168201915b505050505090506000610b2c611752565b9050600081511415610b42578192505050610b85565b600082511115610b77578082604051602001610b5f9291906128ea565b60405160208183030381529060405292505050610b85565b610b8084611769565b925050505b919050565b6000610b966008611810565b90506000610ba38261181e565b604051602001610bb39190612930565b60405160208183030381529060405290506000610bcf83610e30565b90506000610bfd8383604051602001610be9929190612952565b6040516020818303038152906040526119cb565b9050600081604051602001610c129190612997565b6040516020818303038152906040529050610c2d3386611b89565b610c378582611ba7565b610c416008611c1b565b610c6460405180606001604052806025815260200161385a602591398633611c31565b7fa14d70da0581da0c27594beb756f0b6339865c7f2c00f9a35ebfc8fbeeb428a83386604051610c95929190612a20565b60405180910390a15050505050565b6000600560008473ffffffffffffffffffffffffffffffffffffffff1673ffffffffffffffffffffffffffffffffffffffff16815260200190815260200160002060008373ffffffffffffffffffffffffffffffffffffffff1673ffffffffffffffffffffffffffffffffffffffff16815260200190815260200160002060009054906101000a900460ff16905092915050565b610d406110bd565b73ffffffffffffffffffffffffffffffffffffffff16610d5e610904565b73ffffffffffffffffffffffffffffffffffffffff1614610db4576040517f08c379a0000000000000000000000000000000000000000000000000000000008152600401610dab90612c84565b60405180910390fd5b600073ffffffffffffffffffffffffffffffffffffffff168173ffffffffffffffffffffffffffffffffffffffff161415610e24576040517f08c379a0000000000000000000000000000000000000000000000000000000008152600401610e1b90612ae4565b60405180910390fd5b610e2d816114c3565b50565b60606000610e64610e408461181e565b604051602001610e50919061290e565b604051602081830303815290604052611cd0565b905060098054905081610e77919061302f565b905060098181548110610eb3577f4e487b7100000000000000000000000000000000000000000000000000000000600052603260045260246000fd5b906000526020600020018054610ec890612f83565b80601f0160208091040260200160405190810160405280929190818152602001828054610ef490612f83565b8015610f415780601f10610f1657610100808354040283529160200191610f41565b820191906000526020600020905b815481529060010190602001808311610f2457829003601f168201915b5050505050915050919050565b610fe481604051602401610f629190612a64565b6040516020818303038152906040527f41304fac000000000000000000000000000000000000000000000000000000007bffffffffffffffffffffffffffffffffffffffffffffffffffffffff19166020820180517bffffffffffffffffffffffffffffffffffffffffffffffffffffffff8381831617835250505050611d03565b50565b60007f01ffc9a7000000000000000000000000000000000000000000000000000000007bffffffffffffffffffffffffffffffffffffffffffffffffffffffff1916827bffffffffffffffffffffffffffffffffffffffffffffffffffffffff1916149050919050565b60008073ffffffffffffffffffffffffffffffffffffffff166002600084815260200190815260200160002060009054906101000a900473ffffffffffffffffffffffffffffffffffffffff1673ffffffffffffffffffffffffffffffffffffffff1614159050919050565b600033905090565b816004600083815260200190815260200160002060006101000a81548173ffffffffffffffffffffffffffffffffffffffff021916908373ffffffffffffffffffffffffffffffffffffffff160217905550808273ffffffffffffffffffffffffffffffffffffffff1661113883610712565b73ffffffffffffffffffffffffffffffffffffffff167f8c5be1e5ebec7d5bd14f71427d1e84f3dd0314c0f7b2291e5b200ac8c7c3b92560405160405180910390a45050565b600061118982611051565b6111c8576040517f08c379a00000000000000000000000000000000000000000000000000000000081526004016111bf90612b84565b60405180910390fd5b60006111d383610712565b90508073ffffffffffffffffffffffffffffffffffffffff168473ffffffffffffffffffffffffffffffffffffffff16148061121557506112148185610ca4565b5b8061125357508373ffffffffffffffffffffffffffffffffffffffff1661123b846104f5565b73ffffffffffffffffffffffffffffffffffffffff16145b91505092915050565b8273ffffffffffffffffffffffffffffffffffffffff1661127c82610712565b73ffffffffffffffffffffffffffffffffffffffff16146112d2576040517f08c379a00000000000000000000000000000000000000000000000000000000081526004016112c990612b04565b60405180910390fd5b600073ffffffffffffffffffffffffffffffffffffffff168273ffffffffffffffffffffffffffffffffffffffff161415611342576040517f08c379a000000000000000000000000000000000000000000000000000000000815260040161133990612b44565b60405180910390fd5b61134d838383611d2c565b6113586000826110c5565b6001600360008573ffffffffffffffffffffffffffffffffffffffff1673ffffffffffffffffffffffffffffffffffffffff16815260200190815260200160002060008282546113a89190612e99565b925050819055506001600360008473ffffffffffffffffffffffffffffffffffffffff1673ffffffffffffffffffffffffffffffffffffffff16815260200190815260200160002060008282546113ff9190612db8565b92505081905550816002600083815260200190815260200160002060006101000a81548173ffffffffffffffffffffffffffffffffffffffff021916908373ffffffffffffffffffffffffffffffffffffffff160217905550808273ffffffffffffffffffffffffffffffffffffffff168473ffffffffffffffffffffffffffffffffffffffff167fddf252ad1be2c89b69c2b068fc378daa952ba7f163c4a11628f55a4df523b3ef60405160405180910390a46114be838383611d31565b505050565b6000600760009054906101000a900473ffffffffffffffffffffffffffffffffffffffff16905081600760006101000a81548173ffffffffffffffffffffffffffffffffffffffff021916908373ffffffffffffffffffffffffffffffffffffffff1602179055508173ffffffffffffffffffffffffffffffffffffffff168173ffffffffffffffffffffffffffffffffffffffff167f8be0079c531659141344cd1fd0a4f28419497f9722a3daafe3b4186f6b6457e060405160405180910390a35050565b8173ffffffffffffffffffffffffffffffffffffffff168373ffffffffffffffffffffffffffffffffffffffff1614156115f8576040517f08c379a00000000000000000000000000000000000000000000000000000000081526004016115ef90612b64565b60405180910390fd5b80600560008573ffffffffffffffffffffffffffffffffffffffff1673ffffffffffffffffffffffffffffffffffffffff16815260200190815260200160002060008473ffffffffffffffffffffffffffffffffffffffff1673ffffffffffffffffffffffffffffffffffffffff16815260200190815260200160002060006101000a81548160ff0219169083151502179055508173ffffffffffffffffffffffffffffffffffffffff168373ffffffffffffffffffffffffffffffffffffffff167f17307eab39ab6107e8899845ad3d59bd9653f200f220920489ca2b5937696c31836040516116e99190612a49565b60405180910390a3505050565b61170184848461125c565b61170d84848484611d36565b61174c576040517f08c379a000000000000000000000000000000000000000000000000000000000815260040161174390612ac4565b60405180910390fd5b50505050565b606060405180602001604052806000815250905090565b606061177482611051565b6117b3576040517f08c379a00000000000000000000000000000000000000000000000000000000081526004016117aa90612ca4565b60405180910390fd5b60006117bd611752565b905060008151116117dd5760405180602001604052806000815250611808565b806117e78461181e565b6040516020016117f89291906128ea565b6040516020818303038152906040525b915050919050565b600081600001549050919050565b60606000821415611866576040518060400160405280600181526020017f300000000000000000000000000000000000000000000000000000000000000081525090506119c6565b600082905060005b6000821461189857808061188190612fe6565b915050600a826118919190612e0e565b915061186e565b60008167ffffffffffffffff8111156118da577f4e487b7100000000000000000000000000000000000000000000000000000000600052604160045260246000fd5b6040519080825280601f01601f19166020018201604052801561190c5781602001600182028036833780820191505090505b5090505b600085146119bf576001826119259190612e99565b9150600a85611934919061302f565b60306119409190612db8565b60f81b81838151811061197c577f4e487b7100000000000000000000000000000000000000000000000000000000600052603260045260246000fd5b60200101907effffffffffffffffffffffffffffffffffffffffffffffffffffffffffffff1916908160001a905350600a856119b89190612e0e565b9450611910565b8093505050505b919050565b606060008251905060008114156119f45760405180602001604052806000815250915050611b84565b60006003600283611a059190612db8565b611a0f9190612e0e565b6004611a1b9190612e3f565b90506000602082611a2c9190612db8565b67ffffffffffffffff811115611a6b577f4e487b7100000000000000000000000000000000000000000000000000000000600052604160045260246000fd5b6040519080825280601f01601f191660200182016040528015611a9d5781602001600182028036833780820191505090505b509050600060405180606001604052806040815260200161387f604091399050600181016020830160005b86811015611b415760038101905062ffffff818a015116603f8160121c168401518060081b905060ff603f83600c1c1686015116810190508060081b905060ff603f8360061c1686015116810190508060081b905060ff603f831686015116810190508060e01b90508084526004840193505050611ac8565b506003860660018114611b5b5760028114611b6b57611b76565b613d3d60f01b6002830352611b76565b603d60f81b60018303525b508484525050819450505050505b919050565b611ba3828260405180602001604052806000815250611ecd565b5050565b611bb082611051565b611bef576040517f08c379a0000000000000000000000000000000000000000000000000000000008152600401611be690612c04565b60405180910390fd5b80600660008481526020019081526020016000209080519060200190611c16929190612125565b505050565b6001816000016000828254019250508190555050565b611ccb838383604051602401611c4993929190612a86565b6040516020818303038152906040527fe3849f79000000000000000000000000000000000000000000000000000000007bffffffffffffffffffffffffffffffffffffffffffffffffffffffff19166020820180517bffffffffffffffffffffffffffffffffffffffffffffffffffffffff8381831617835250505050611d03565b505050565b600081604051602001611ce391906128d3565b6040516020818303038152906040528051906020012060001c9050919050565b60008151905060006a636f6e736f6c652e6c6f679050602083016000808483855afa5050505050565b505050565b505050565b6000611d578473ffffffffffffffffffffffffffffffffffffffff16611f28565b15611ec0578373ffffffffffffffffffffffffffffffffffffffff1663150b7a02611d806110bd565b8786866040518563ffffffff1660e01b8152600401611da294939291906129d4565b602060405180830381600087803b158015611dbc57600080fd5b505af1925050508015611ded57506040513d601f19601f82011682018060405250810190611dea9190612469565b60015b611e70573d8060008114611e1d576040519150601f19603f3d011682016040523d82523d6000602084013e611e22565b606091505b50600081511415611e68576040517f08c379a0000000000000000000000000000000000000000000000000000000008152600401611e5f90612ac4565b60405180910390fd5b805181602001fd5b63150b7a0260e01b7bffffffffffffffffffffffffffffffffffffffffffffffffffffffff1916817bffffffffffffffffffffffffffffffffffffffffffffffffffffffff191614915050611ec5565b600190505b949350505050565b611ed78383611f4b565b611ee46000848484611d36565b611f23576040517f08c379a0000000000000000000000000000000000000000000000000000000008152600401611f1a90612ac4565b60405180910390fd5b505050565b6000808273ffffffffffffffffffffffffffffffffffffffff163b119050919050565b600073ffffffffffffffffffffffffffffffffffffffff168273ffffffffffffffffffffffffffffffffffffffff161415611fbb576040517f08c379a0000000000000000000000000000000000000000000000000000000008152600401611fb290612c24565b60405180910390fd5b611fc481611051565b15612004576040517f08c379a0000000000000000000000000000000000000000000000000000000008152600401611ffb90612b24565b60405180910390fd5b61201060008383611d2c565b6001600360008473ffffffffffffffffffffffffffffffffffffffff1673ffffffffffffffffffffffffffffffffffffffff16815260200190815260200160002060008282546120609190612db8565b92505081905550816002600083815260200190815260200160002060006101000a81548173ffffffffffffffffffffffffffffffffffffffff021916908373ffffffffffffffffffffffffffffffffffffffff160217905550808273ffffffffffffffffffffffffffffffffffffffff16600073ffffffffffffffffffffffffffffffffffffffff167fddf252ad1be2c89b69c2b068fc378daa952ba7f163c4a11628f55a4df523b3ef60405160405180910390a461212160008383611d31565b5050565b82805461213190612f83565b90600052602060002090601f016020900481019282612153576000855561219a565b82601f1061216c57805160ff191683800117855561219a565b8280016001018555821561219a579182015b8281111561219957825182559160200191906001019061217e565b5b5090506121a791906121ab565b5090565b5b808211156121c45760008160009055506001016121ac565b5090565b60006121db6121d684612d44565b612d1f565b9050828152602081018484840111156121f357600080fd5b6121fe848285612f41565b509392505050565b600081359050612215816137fd565b92915050565b60008135905061222a81613814565b92915050565b60008135905061223f8161382b565b92915050565b6000815190506122548161382b565b92915050565b600082601f83011261226b57600080fd5b813561227b8482602086016121c8565b91505092915050565b60008135905061229381613842565b92915050565b6000602082840312156122ab57600080fd5b60006122b984828501612206565b91505092915050565b600080604083850312156122d557600080fd5b60006122e385828601612206565b92505060206122f485828601612206565b9150509250929050565b60008060006060848603121561231357600080fd5b600061232186828701612206565b935050602061233286828701612206565b925050604061234386828701612284565b9150509250925092565b6000806000806080858703121561236357600080fd5b600061237187828801612206565b945050602061238287828801612206565b935050604061239387828801612284565b925050606085013567ffffffffffffffff8111156123b057600080fd5b6123bc8782880161225a565b91505092959194509250565b600080604083850312156123db57600080fd5b60006123e985828601612206565b92505060206123fa8582860161221b565b9150509250929050565b6000806040838503121561241757600080fd5b600061242585828601612206565b925050602061243685828601612284565b9150509250929050565b60006020828403121561245257600080fd5b600061246084828501612230565b91505092915050565b60006020828403121561247b57600080fd5b600061248984828501612245565b91505092915050565b6000602082840312156124a457600080fd5b60006124b284828501612284565b91505092915050565b6124c481612ecd565b82525050565b6124d381612edf565b82525050565b60006124e482612d75565b6124ee8185612d8b565b93506124fe818560208601612f50565b6125078161311c565b840191505092915050565b600061251d82612d80565b6125278185612d9c565b9350612537818560208601612f50565b6125408161311c565b840191505092915050565b600061255682612d80565b6125608185612dad565b9350612570818560208601612f50565b80840191505092915050565b6000612589603283612d9c565b91506125948261312d565b604082019050919050565b60006125ac602683612d9c565b91506125b78261317c565b604082019050919050565b60006125cf602583612d9c565b91506125da826131cb565b604082019050919050565b60006125f2601c83612d9c565b91506125fd8261321a565b602082019050919050565b6000612615602483612d9c565b915061262082613243565b604082019050919050565b6000612638601983612d9c565b915061264382613292565b602082019050919050565b600061265b602c83612d9c565b9150612666826132bb565b604082019050919050565b600061267e600583612dad565b91506126898261330a565b600582019050919050565b60006126a1600e83612dad565b91506126ac82613333565b600e82019050919050565b60006126c460cf83612dad565b91506126cf8261335c565b60cf82019050919050565b60006126e7603883612d9c565b91506126f282613469565b604082019050919050565b600061270a602a83612d9c565b9150612715826134b8565b604082019050919050565b600061272d602983612d9c565b915061273882613507565b604082019050919050565b6000612750602e83612d9c565b915061275b82613556565b604082019050919050565b6000612773600283612dad565b915061277e826135a5565b600282019050919050565b6000612796602083612d9c565b91506127a1826135ce565b602082019050919050565b60006127b9603183612d9c565b91506127c4826135f7565b604082019050919050565b60006127dc602c83612d9c565b91506127e782613646565b604082019050919050565b60006127ff602083612d9c565b915061280a82613695565b602082019050919050565b6000612822602f83612d9c565b915061282d826136be565b604082019050919050565b6000612845600a83612dad565b91506128508261370d565b600a82019050919050565b6000612868602183612d9c565b915061287382613736565b604082019050919050565b600061288b601d83612dad565b915061289682613785565b601d82019050919050565b60006128ae603183612d9c565b91506128b9826137ae565b604082019050919050565b6128cd81612f37565b82525050565b60006128df828461254b565b915081905092915050565b60006128f6828561254b565b9150612902828461254b565b91508190509392505050565b600061291982612671565b9150612925828461254b565b915081905092915050565b600061293b82612694565b9150612947828461254b565b915081905092915050565b600061295d82612838565b9150612969828561254b565b9150612974826126b7565b9150612980828461254b565b915061298b82612766565b91508190509392505050565b60006129a28261287e565b91506129ae828461254b565b915081905092915050565b60006020820190506129ce60008301846124bb565b92915050565b60006080820190506129e960008301876124bb565b6129f660208301866124bb565b612a0360408301856128c4565b8181036060830152612a1581846124d9565b905095945050505050565b6000604082019050612a3560008301856124bb565b612a4260208301846128c4565b9392505050565b6000602082019050612a5e60008301846124ca565b92915050565b60006020820190508181036000830152612a7e8184612512565b905092915050565b60006060820190508181036000830152612aa08186612512565b9050612aaf60208301856128c4565b612abc60408301846124bb565b949350505050565b60006020820190508181036000830152612add8161257c565b9050919050565b60006020820190508181036000830152612afd8161259f565b9050919050565b60006020820190508181036000830152612b1d816125c2565b9050919050565b60006020820190508181036000830152612b3d816125e5565b9050919050565b60006020820190508181036000830152612b5d81612608565b9050919050565b60006020820190508181036000830152612b7d8161262b565b9050919050565b60006020820190508181036000830152612b9d8161264e565b9050919050565b60006020820190508181036000830152612bbd816126da565b9050919050565b60006020820190508181036000830152612bdd816126fd565b9050919050565b60006020820190508181036000830152612bfd81612720565b9050919050565b60006020820190508181036000830152612c1d81612743565b9050919050565b60006020820190508181036000830152612c3d81612789565b9050919050565b60006020820190508181036000830152612c5d816127ac565b9050919050565b60006020820190508181036000830152612c7d816127cf565b9050919050565b60006020820190508181036000830152612c9d816127f2565b9050919050565b60006020820190508181036000830152612cbd81612815565b9050919050565b60006020820190508181036000830152612cdd8161285b565b9050919050565b60006020820190508181036000830152612cfd816128a1565b9050919050565b6000602082019050612d1960008301846128c4565b92915050565b6000612d29612d3a565b9050612d358282612fb5565b919050565b6000604051905090565b600067ffffffffffffffff821115612d5f57612d5e6130ed565b5b612d688261311c565b9050602081019050919050565b600081519050919050565b600081519050919050565b600082825260208201905092915050565b600082825260208201905092915050565b600081905092915050565b6000612dc382612f37565b9150612dce83612f37565b9250827fffffffffffffffffffffffffffffffffffffffffffffffffffffffffffffffff03821115612e0357612e02613060565b5b828201905092915050565b6000612e1982612f37565b9150612e2483612f37565b925082612e3457612e3361308f565b5b828204905092915050565b6000612e4a82612f37565b9150612e5583612f37565b9250817fffffffffffffffffffffffffffffffffffffffffffffffffffffffffffffffff0483118215151615612e8e57612e8d613060565b5b828202905092915050565b6000612ea482612f37565b9150612eaf83612f37565b925082821015612ec257612ec1613060565b5b828203905092915050565b6000612ed882612f17565b9050919050565b60008115159050919050565b60007fffffffff0000000000000000000000000000000000000000000000000000000082169050919050565b600073ffffffffffffffffffffffffffffffffffffffff82169050919050565b6000819050919050565b82818337600083830152505050565b60005b83811015612f6e578082015181840152602081019050612f53565b83811115612f7d576000848401525b50505050565b60006002820490506001821680612f9b57607f821691505b60208210811415612faf57612fae6130be565b5b50919050565b612fbe8261311c565b810181811067ffffffffffffffff82111715612fdd57612fdc6130ed565b5b80604052505050565b6000612ff182612f37565b91507fffffffffffffffffffffffffffffffffffffffffffffffffffffffffffffffff82141561302457613023613060565b5b600182019050919050565b600061303a82612f37565b915061304583612f37565b9250826130555761305461308f565b5b828206905092915050565b7f4e487b7100000000000000000000000000000000000000000000000000000000600052601160045260246000fd5b7f4e487b7100000000000000000000000000000000000000000000000000000000600052601260045260246000fd5b7f4e487b7100000000000000000000000000000000000000000000000000000000600052602260045260246000fd5b7f4e487b7100000000000000000000000000000000000000000000000000000000600052604160045260246000fd5b6000601f19601f8301169050919050565b7f4552433732313a207472616e7366657220746f206e6f6e20455243373231526560008201527f63656976657220696d706c656d656e7465720000000000000000000000000000602082015250565b7f4f776e61626c653a206e6577206f776e657220697320746865207a65726f206160008201527f6464726573730000000000000000000000000000000000000000000000000000602082015250565b7f4552433732313a207472616e736665722066726f6d20696e636f72726563742060008201527f6f776e6572000000000000000000000000000000000000000000000000000000602082015250565b7f4552433732313a20746f6b656e20616c7265616479206d696e74656400000000600082015250565b7f4552433732313a207472616e7366657220746f20746865207a65726f2061646460008201527f7265737300000000000000000000000000000000000000000000000000000000602082015250565b7f4552433732313a20617070726f766520746f2063616c6c657200000000000000600082015250565b7f4552433732313a206f70657261746f7220717565727920666f72206e6f6e657860008201527f697374656e7420746f6b656e0000000000000000000000000000000000000000602082015250565b7f4d41464941000000000000000000000000000000000000000000000000000000600082015250565b7f4d61666961204d6f6e6b65792023000000000000000000000000000000000000600082015250565b7f222c20226465736372697074696f6e223a20224120686967686c79206163636c60008201527f61696d656420636f6c6c656374696f6e206f66204d61666961204d6f6e6b657960208201527f732067656e657261746564206f6e6c696e652062792044414c4c2d45204d696e60408201527f692c20616e20696d6167652067656e657261746f722041727469666963616c2060608201527f496e74656c6c6967656e6365202868747470733a2f2f68756767696e6766616360808201527f652e636f2f7370616365732f64616c6c652d6d696e692f64616c6c652d6d696e60a08201527f6929222c2022696d616765223a2022000000000000000000000000000000000060c082015250565b7f4552433732313a20617070726f76652063616c6c6572206973206e6f74206f7760008201527f6e6572206e6f7220617070726f76656420666f7220616c6c0000000000000000602082015250565b7f4552433732313a2062616c616e636520717565727920666f7220746865207a6560008201527f726f206164647265737300000000000000000000000000000000000000000000602082015250565b7f4552433732313a206f776e657220717565727920666f72206e6f6e657869737460008201527f656e7420746f6b656e0000000000000000000000000000000000000000000000602082015250565b7f45524337323155524953746f726167653a2055524920736574206f66206e6f6e60008201527f6578697374656e7420746f6b656e000000000000000000000000000000000000602082015250565b7f227d000000000000000000000000000000000000000000000000000000000000600082015250565b7f4552433732313a206d696e7420746f20746865207a65726f2061646472657373600082015250565b7f45524337323155524953746f726167653a2055524920717565727920666f722060008201527f6e6f6e6578697374656e7420746f6b656e000000000000000000000000000000602082015250565b7f4552433732313a20617070726f76656420717565727920666f72206e6f6e657860008201527f697374656e7420746f6b656e0000000000000000000000000000000000000000602082015250565b7f4f776e61626c653a2063616c6c6572206973206e6f7420746865206f776e6572600082015250565b7f4552433732314d657461646174613a2055524920717565727920666f72206e6f60008201527f6e6578697374656e7420746f6b656e0000000000000000000000000000000000602082015250565b7f7b226e616d65223a202200000000000000000000000000000000000000000000600082015250565b7f4552433732313a20617070726f76616c20746f2063757272656e74206f776e6560008201527f7200000000000000000000000000000000000000000000000000000000000000602082015250565b7f646174613a6170706c69636174696f6e2f6a736f6e3b6261736536342c000000600082015250565b7f4552433732313a207472616e736665722063616c6c6572206973206e6f74206f60008201527f776e6572206e6f7220617070726f766564000000000000000000000000000000602082015250565b61380681612ecd565b811461381157600080fd5b50565b61381d81612edf565b811461382857600080fd5b50565b61383481612eeb565b811461383f57600080fd5b50565b61384b81612f37565b811461385657600080fd5b5056fe416e204e465420772f20494420257320686173206265656e206d696e74656420746f2025734142434445464748494a4b4c4d4e4f505152535455565758595a6162636465666768696a6b6c6d6e6f707172737475767778797a303132333435363738392b2fa2646970667358221220395d1953c6a438e337a15d5109a27bd31f6dffe07cb182ccecd481b2f94289df64736f6c6343000801003368747470733a2f2f676174657761792e70696e6174612e636c6f75642f697066732f516d586f757a77636a4d4731584d52484771426769626d674e65366a5958784651633774315a716d57596f4657712f4d616669612f31302e706e6768747470733a2f2f676174657761792e70696e6174612e636c6f75642f697066732f516d586f757a77636a4d4731584d52484771426769626d674e65366a5958784651633774315a716d57596f4657712f4d616669612f30372e706e6768747470733a2f2f676174657761792e70696e6174612e636c6f75642f697066732f516d586f757a77636a4d4731584d52484771426769626d674e65366a5958784651633774315a716d57596f4657712f4d616669612f31342e706e6768747470733a2f2f676174657761792e70696e6174612e636c6f75642f697066732f516d586f757a77636a4d4731584d52484771426769626d674e65366a5958784651633774315a716d57596f4657712f4d616669612f31362e706e6768747470733a2f2f676174657761792e70696e6174612e636c6f75642f697066732f516d586f757a77636a4d4731584d52484771426769626d674e65366a5958784651633774315a716d57596f4657712f4d616669612f30392e706e6768747470733a2f2f676174657761792e70696e6174612e636c6f75642f697066732f516d586f757a77636a4d4731584d52484771426769626d674e65366a5958784651633774315a716d57596f4657712f4d616669612f32322e706e6768747470733a2f2f676174657761792e70696e6174612e636c6f75642f697066732f516d586f757a77636a4d4731584d52484771426769626d674e65366a5958784651633774315a716d57596f4657712f4d616669612f31352e706e6768747470733a2f2f676174657761792e70696e6174612e636c6f75642f697066732f516d586f757a77636a4d4731584d52484771426769626d674e65366a5958784651633774315a716d57596f4657712f4d616669612f30352e706e6768747470733a2f2f676174657761792e70696e6174612e636c6f75642f697066732f516d586f757a77636a4d4731584d52484771426769626d674e65366a5958784651633774315a716d57596f4657712f4d616669612f31312e706e6768747470733a2f2f676174657761792e70696e6174612e636c6f75642f697066732f516d586f757a77636a4d4731584d52484771426769626d674e65366a5958784651633774315a716d57596f4657712f4d616669612f32312e706e6768747470733a2f2f676174657761792e70696e6174612e636c6f75642f697066732f516d586f757a77636a4d4731584d52484771426769626d674e65366a5958784651633774315a716d57596f4657712f4d616669612f30312e706e6768747470733a2f2f676174657761792e70696e6174612e636c6f75642f697066732f516d586f757a77636a4d4731584d52484771426769626d674e65366a5958784651633774315a716d57596f4657712f4d616669612f30332e706e6768747470733a2f2f676174657761792e70696e6174612e636c6f75642f697066732f516d586f757a77636a4d4731584d52484771426769626d674e65366a5958784651633774315a716d57596f4657712f4d616669612f31332e706e6768747470733a2f2f676174657761792e70696e6174612e636c6f75642f697066732f516d586f757a77636a4d4731584d52484771426769626d674e65366a5958784651633774315a716d57596f4657712f4d616669612f30362e706e6768747470733a2f2f676174657761792e70696e6174612e636c6f75642f697066732f516d586f757a77636a4d4731584d52484771426769626d674e65366a5958784651633774315a716d57596f4657712f4d616669612f31322e706e6768747470733a2f2f676174657761792e70696e6174612e636c6f75642f697066732f516d586f757a77636a4d4731584d52484771426769626d674e65366a5958784651633774315a716d57596f4657712f4d616669612f31382e706e6768747470733a2f2f676174657761792e70696e6174612e636c6f75642f697066732f516d586f757a77636a4d4731584d52484771426769626d674e65366a5958784651633774315a716d57596f4657712f4d616669612f32302e706e6768747470733a2f2f676174657761792e70696e6174612e636c6f75642f697066732f516d586f757a77636a4d4731584d52484771426769626d674e65366a5958784651633774315a716d57596f4657712f4d616669612f31392e706e6768747470733a2f2f676174657761792e70696e6174612e636c6f75642f697066732f516d586f757a77636a4d4731584d52484771426769626d674e65366a5958784651633774315a716d57596f4657712f4d616669612f30322e706e6768747470733a2f2f676174657761792e70696e6174612e636c6f75642f697066732f516d586f757a77636a4d4731584d52484771426769626d674e65366a5958784651633774315a716d57596f4657712f4d616669612f31372e706e6768747470733a2f2f676174657761792e70696e6174612e636c6f75642f697066732f516d586f757a77636a4d4731584d52484771426769626d674e65366a5958784651633774315a716d57596f4657712f4d616669612f30382e706e6768747470733a2f2f676174657761792e70696e6174612e636c6f75642f697066732f516d586f757a77636a4d4731584d52484771426769626d674e65366a5958784651633774315a716d57596f4657712f4d616669612f30342e706e67",
  "linkReferences": {},
  "deployedLinkReferences": {}
}