{
  "_format": "hh-sol-artifact-1",
  "contractName": "MafiaMonkeysNFT",
  "sourceName": "contracts/MafiaMonkeysNFT.sol",
  "abi": [
    {
      "inputs": [],
      "stateMutability": "nonpayable",
      "type": "constructor"
    },
    {
      "anonymous": false,
      "inputs": [
        {
          "indexed": true,
          "internalType": "address",
          "name": "owner",
          "type": "address"
        },
        {
          "indexed": true,
          "internalType": "address",
          "name": "approved",
          "type": "address"
        },
        {
          "indexed": true,
          "internalType": "uint256",
          "name": "tokenId",
          "type": "uint256"
        }
      ],
      "name": "Approval",
      "type": "event"
    },
    {
      "anonymous": false,
      "inputs": [
        {
          "indexed": true,
          "internalType": "address",
          "name": "owner",
          "type": "address"
        },
        {
          "indexed": true,
          "internalType": "address",
          "name": "operator",
          "type": "address"
        },
        {
          "indexed": false,
          "internalType": "bool",
          "name": "approved",
          "type": "bool"
        }
      ],
      "name": "ApprovalForAll",
      "type": "event"
    },
    {
      "anonymous": false,
      "inputs": [
        {
          "indexed": true,
          "internalType": "address",
          "name": "previousOwner",
          "type": "address"
        },
        {
          "indexed": true,
          "internalType": "address",
          "name": "newOwner",
          "type": "address"
        }
      ],
      "name": "OwnershipTransferred",
      "type": "event"
    },
    {
      "anonymous": false,
      "inputs": [
        {
          "indexed": true,
          "internalType": "address",
          "name": "from",
          "type": "address"
        },
        {
          "indexed": true,
          "internalType": "address",
          "name": "to",
          "type": "address"
        },
        {
          "indexed": true,
          "internalType": "uint256",
          "name": "tokenId",
          "type": "uint256"
        }
      ],
      "name": "Transfer",
      "type": "event"
    },
    {
      "inputs": [
        {
          "internalType": "address",
          "name": "to",
          "type": "address"
        },
        {
          "internalType": "uint256",
          "name": "tokenId",
          "type": "uint256"
        }
      ],
      "name": "approve",
      "outputs": [],
      "stateMutability": "nonpayable",
      "type": "function"
    },
    {
      "inputs": [
        {
          "internalType": "address",
          "name": "owner",
          "type": "address"
        }
      ],
      "name": "balanceOf",
      "outputs": [
        {
          "internalType": "uint256",
          "name": "",
          "type": "uint256"
        }
      ],
      "stateMutability": "view",
      "type": "function"
    },
    {
      "inputs": [
        {
          "internalType": "uint256",
          "name": "tokenId",
          "type": "uint256"
        }
      ],
      "name": "getApproved",
      "outputs": [
        {
          "internalType": "address",
          "name": "",
          "type": "address"
        }
      ],
      "stateMutability": "view",
      "type": "function"
    },
    {
      "inputs": [
        {
          "internalType": "uint256",
          "name": "tokenId",
          "type": "uint256"
        }
      ],
      "name": "getRandomMonkeyImage",
      "outputs": [
        {
          "internalType": "string",
          "name": "",
          "type": "string"
        }
      ],
      "stateMutability": "view",
      "type": "function"
    },
    {
      "inputs": [
        {
          "internalType": "address",
          "name": "owner",
          "type": "address"
        },
        {
          "internalType": "address",
          "name": "operator",
          "type": "address"
        }
      ],
      "name": "isApprovedForAll",
      "outputs": [
        {
          "internalType": "bool",
          "name": "",
          "type": "bool"
        }
      ],
      "stateMutability": "view",
      "type": "function"
    },
    {
      "inputs": [],
      "name": "makeAnEpicNFT",
      "outputs": [],
      "stateMutability": "nonpayable",
      "type": "function"
    },
    {
      "inputs": [],
      "name": "name",
      "outputs": [
        {
          "internalType": "string",
          "name": "",
          "type": "string"
        }
      ],
      "stateMutability": "view",
      "type": "function"
    },
    {
      "inputs": [],
      "name": "owner",
      "outputs": [
        {
          "internalType": "address",
          "name": "",
          "type": "address"
        }
      ],
      "stateMutability": "view",
      "type": "function"
    },
    {
      "inputs": [
        {
          "internalType": "uint256",
          "name": "tokenId",
          "type": "uint256"
        }
      ],
      "name": "ownerOf",
      "outputs": [
        {
          "internalType": "address",
          "name": "",
          "type": "address"
        }
      ],
      "stateMutability": "view",
      "type": "function"
    },
    {
      "inputs": [],
      "name": "renounceOwnership",
      "outputs": [],
      "stateMutability": "nonpayable",
      "type": "function"
    },
    {
      "inputs": [
        {
          "internalType": "address",
          "name": "from",
          "type": "address"
        },
        {
          "internalType": "address",
          "name": "to",
          "type": "address"
        },
        {
          "internalType": "uint256",
          "name": "tokenId",
          "type": "uint256"
        }
      ],
      "name": "safeTransferFrom",
      "outputs": [],
      "stateMutability": "nonpayable",
      "type": "function"
    },
    {
      "inputs": [
        {
          "internalType": "address",
          "name": "from",
          "type": "address"
        },
        {
          "internalType": "address",
          "name": "to",
          "type": "address"
        },
        {
          "internalType": "uint256",
          "name": "tokenId",
          "type": "uint256"
        },
        {
          "internalType": "bytes",
          "name": "_data",
          "type": "bytes"
        }
      ],
      "name": "safeTransferFrom",
      "outputs": [],
      "stateMutability": "nonpayable",
      "type": "function"
    },
    {
      "inputs": [
        {
          "internalType": "address",
          "name": "operator",
          "type": "address"
        },
        {
          "internalType": "bool",
          "name": "approved",
          "type": "bool"
        }
      ],
      "name": "setApprovalForAll",
      "outputs": [],
      "stateMutability": "nonpayable",
      "type": "function"
    },
    {
      "inputs": [
        {
          "internalType": "bytes4",
          "name": "interfaceId",
          "type": "bytes4"
        }
      ],
      "name": "supportsInterface",
      "outputs": [
        {
          "internalType": "bool",
          "name": "",
          "type": "bool"
        }
      ],
      "stateMutability": "view",
      "type": "function"
    },
    {
      "inputs": [],
      "name": "symbol",
      "outputs": [
        {
          "internalType": "string",
          "name": "",
          "type": "string"
        }
      ],
      "stateMutability": "view",
      "type": "function"
    },
    {
      "inputs": [
        {
          "internalType": "uint256",
          "name": "tokenId",
          "type": "uint256"
        }
      ],
      "name": "tokenURI",
      "outputs": [
        {
          "internalType": "string",
          "name": "",
          "type": "string"
        }
      ],
      "stateMutability": "view",
      "type": "function"
    },
    {
      "inputs": [
        {
          "internalType": "address",
          "name": "from",
          "type": "address"
        },
        {
          "internalType": "address",
          "name": "to",
          "type": "address"
        },
        {
          "internalType": "uint256",
          "name": "tokenId",
          "type": "uint256"
        }
      ],
      "name": "transferFrom",
      "outputs": [],
      "stateMutability": "nonpayable",
      "type": "function"
    },
    {
      "inputs": [
        {
          "internalType": "address",
          "name": "newOwner",
          "type": "address"
        }
      ],
      "name": "transferOwnership",
      "outputs": [],
      "stateMutability": "nonpayable",
      "type": "function"
    }
  ],
  "bytecode": "0x6080604052604051806102c001604052806040518060800160405280605d81526020016200447a605d913981526020016040518060800160405280605d815260200162004762605d913981526020016040518060800160405280605d8152602001620044d7605d913981526020016040518060800160405280605d815260200162004879605d913981526020016040518060800160405280605d815260200162004363605d913981526020016040518060800160405280605d815260200162004591605d913981526020016040518060800160405280605d815260200162004135605d913981526020016040518060800160405280605d81526020016200481c605d913981526020016040518060800160405280605d81526020016200424c605d913981526020016040518060800160405280605d8152602001620040d8605d913981526020016040518060800160405280605d8152602001620043c0605d913981526020016040518060800160405280605d8152602001620045ee605d913981526020016040518060800160405280605d815260200162004534605d913981526020016040518060800160405280605d815260200162004192605d913981526020016040518060800160405280605d815260200162004306605d913981526020016040518060800160405280605d8152602001620041ef605d913981526020016040518060800160405280605d8152602001620047bf605d913981526020016040518060800160405280605d81526020016200464b605d913981526020016040518060800160405280605d815260200162004705605d913981526020016040518060800160405280605d8152602001620046a8605d913981526020016040518060800160405280605d81526020016200441d605d913981526020016040518060800160405280605d8152602001620042a9605d91398152506009906016620002ca92919062000584565b50348015620002d857600080fd5b506040518060400160405280601181526020017f4d61666961204d6f6e6b657973204e46540000000000000000000000000000008152506040518060400160405280600f81526020017f4d414649414d4f4e4b4559534e4654000000000000000000000000000000000081525081600090805190602001906200035d929190620005eb565b50806001908051906020019062000376929190620005eb565b505050620003996200038d620003ea60201b60201c565b620003f260201b60201c565b620003e46040518060400160405280601b81526020017f54686973206973204d79204e465420436f6e74616374204c4f4c210000000000815250620004b860201b62000f151760201c565b62000836565b600033905090565b6000600760009054906101000a900473ffffffffffffffffffffffffffffffffffffffff16905081600760006101000a81548173ffffffffffffffffffffffffffffffffffffffff021916908373ffffffffffffffffffffffffffffffffffffffff1602179055508173ffffffffffffffffffffffffffffffffffffffff168173ffffffffffffffffffffffffffffffffffffffff167f8be0079c531659141344cd1fd0a4f28419497f9722a3daafe3b4186f6b6457e060405160405180910390a35050565b6200055881604051602401620004cf91906200074a565b6040516020818303038152906040527f41304fac000000000000000000000000000000000000000000000000000000007bffffffffffffffffffffffffffffffffffffffffffffffffffffffff19166020820180517bffffffffffffffffffffffffffffffffffffffffffffffffffffffff83818316178352505050506200055b60201b60201c565b50565b60008151905060006a636f6e736f6c652e6c6f679050602083016000808483855afa5050505050565b828054828255906000526020600020908101928215620005d8579160200282015b82811115620005d7578251829080519060200190620005c6929190620005eb565b5091602001919060010190620005a5565b5b509050620005e791906200067c565b5090565b828054620005f990620007c0565b90600052602060002090601f0160209004810192826200061d576000855562000669565b82601f106200063857805160ff191683800117855562000669565b8280016001018555821562000669579182015b82811115620006685782518255916020019190600101906200064b565b5b509050620006789190620006a4565b5090565b5b80821115620006a05760008181620006969190620006c3565b506001016200067d565b5090565b5b80821115620006bf576000816000905550600101620006a5565b5090565b508054620006d190620007c0565b6000825580601f10620006e5575062000706565b601f016020900490600052602060002090810190620007059190620006a4565b5b50565b600062000716826200076e565b62000722818562000779565b9350620007348185602086016200078a565b6200073f8162000825565b840191505092915050565b6000602082019050818103600083015262000766818462000709565b905092915050565b600081519050919050565b600082825260208201905092915050565b60005b83811015620007aa5780820151818401526020810190506200078d565b83811115620007ba576000848401525b50505050565b60006002820490506001821680620007d957607f821691505b60208210811415620007f057620007ef620007f6565b5b50919050565b7f4e487b7100000000000000000000000000000000000000000000000000000000600052602260045260246000fd5b6000601f19601f8301169050919050565b61389280620008466000396000f3fe608060405234801561001057600080fd5b50600436106101165760003560e01c80638da5cb5b116100a2578063c87b56dd11610071578063c87b56dd146102cb578063de9d132f146102fb578063e985e9c514610305578063f2fde38b14610335578063fcdea7621461035157610116565b80638da5cb5b1461025757806395d89b4114610275578063a22cb46514610293578063b88d4fde146102af57610116565b806323b872dd116100e957806323b872dd146101b557806342842e0e146101d15780636352211e146101ed57806370a082311461021d578063715018a61461024d57610116565b806301ffc9a71461011b57806306fdde031461014b578063081812fc14610169578063095ea7b314610199575b600080fd5b61013560048036038101906101309190612407565b610381565b60405161014291906129e7565b60405180910390f35b610153610463565b6040516101609190612a02565b60405180910390f35b610183600480360381019061017e9190612459565b6104f5565b6040516101909190612980565b60405180910390f35b6101b360048036038101906101ae91906123cb565b61057a565b005b6101cf60048036038101906101ca91906122c5565b610692565b005b6101eb60048036038101906101e691906122c5565b6106f2565b005b61020760048036038101906102029190612459565b610712565b6040516102149190612980565b60405180910390f35b61023760048036038101906102329190612260565b6107c4565b6040516102449190612ca2565b60405180910390f35b61025561087c565b005b61025f610904565b60405161026c9190612980565b60405180910390f35b61027d61092e565b60405161028a9190612a02565b60405180910390f35b6102ad60048036038101906102a8919061238f565b6109c0565b005b6102c960048036038101906102c49190612314565b6109d6565b005b6102e560048036038101906102e09190612459565b610a38565b6040516102f29190612a02565b60405180910390f35b610303610b8a565b005b61031f600480360381019061031a9190612289565b610c6b565b60405161032c91906129e7565b60405180910390f35b61034f600480360381019061034a9190612260565b610cff565b005b61036b60048036038101906103669190612459565b610df7565b6040516103789190612a02565b60405180910390f35b60007f80ac58cd000000000000000000000000000000000000000000000000000000007bffffffffffffffffffffffffffffffffffffffffffffffffffffffff1916827bffffffffffffffffffffffffffffffffffffffffffffffffffffffff1916148061044c57507f5b5e139f000000000000000000000000000000000000000000000000000000007bffffffffffffffffffffffffffffffffffffffffffffffffffffffff1916827bffffffffffffffffffffffffffffffffffffffffffffffffffffffff1916145b8061045c575061045b82610fae565b5b9050919050565b60606000805461047290612f21565b80601f016020809104026020016040519081016040528092919081815260200182805461049e90612f21565b80156104eb5780601f106104c0576101008083540402835291602001916104eb565b820191906000526020600020905b8154815290600101906020018083116104ce57829003601f168201915b5050505050905090565b600061050082611018565b61053f576040517f08c379a000000000000000000000000000000000000000000000000000000000815260040161053690612c02565b60405180910390fd5b6004600083815260200190815260200160002060009054906101000a900473ffffffffffffffffffffffffffffffffffffffff169050919050565b600061058582610712565b90508073ffffffffffffffffffffffffffffffffffffffff168373ffffffffffffffffffffffffffffffffffffffff1614156105f6576040517f08c379a00000000000000000000000000000000000000000000000000000000081526004016105ed90612c62565b60405180910390fd5b8073ffffffffffffffffffffffffffffffffffffffff16610615611084565b73ffffffffffffffffffffffffffffffffffffffff16148061064457506106438161063e611084565b610c6b565b5b610683576040517f08c379a000000000000000000000000000000000000000000000000000000000815260040161067a90612b42565b60405180910390fd5b61068d838361108c565b505050565b6106a361069d611084565b82611145565b6106e2576040517f08c379a00000000000000000000000000000000000000000000000000000000081526004016106d990612c82565b60405180910390fd5b6106ed838383611223565b505050565b61070d838383604051806020016040528060008152506109d6565b505050565b6000806002600084815260200190815260200160002060009054906101000a900473ffffffffffffffffffffffffffffffffffffffff169050600073ffffffffffffffffffffffffffffffffffffffff168173ffffffffffffffffffffffffffffffffffffffff1614156107bb576040517f08c379a00000000000000000000000000000000000000000000000000000000081526004016107b290612b82565b60405180910390fd5b80915050919050565b60008073ffffffffffffffffffffffffffffffffffffffff168273ffffffffffffffffffffffffffffffffffffffff161415610835576040517f08c379a000000000000000000000000000000000000000000000000000000000815260040161082c90612b62565b60405180910390fd5b600360008373ffffffffffffffffffffffffffffffffffffffff1673ffffffffffffffffffffffffffffffffffffffff168152602001908152602001600020549050919050565b610884611084565b73ffffffffffffffffffffffffffffffffffffffff166108a2610904565b73ffffffffffffffffffffffffffffffffffffffff16146108f8576040517f08c379a00000000000000000000000000000000000000000000000000000000081526004016108ef90612c22565b60405180910390fd5b610902600061148a565b565b6000600760009054906101000a900473ffffffffffffffffffffffffffffffffffffffff16905090565b60606001805461093d90612f21565b80601f016020809104026020016040519081016040528092919081815260200182805461096990612f21565b80156109b65780601f1061098b576101008083540402835291602001916109b6565b820191906000526020600020905b81548152906001019060200180831161099957829003601f168201915b5050505050905090565b6109d26109cb611084565b8383611550565b5050565b6109e76109e1611084565b83611145565b610a26576040517f08c379a0000000000000000000000000000000000000000000000000000000008152600401610a1d90612c82565b60405180910390fd5b610a32848484846116bd565b50505050565b6060610a4382611018565b610a82576040517f08c379a0000000000000000000000000000000000000000000000000000000008152600401610a7990612be2565b60405180910390fd5b6000600660008481526020019081526020016000208054610aa290612f21565b80601f0160208091040260200160405190810160405280929190818152602001828054610ace90612f21565b8015610b1b5780601f10610af057610100808354040283529160200191610b1b565b820191906000526020600020905b815481529060010190602001808311610afe57829003601f168201915b505050505090506000610b2c611719565b9050600081511415610b42578192505050610b85565b600082511115610b77578082604051602001610b5f9291906128b1565b60405160208183030381529060405292505050610b85565b610b8084611730565b925050505b919050565b6000610b9660086117d7565b90506000610ba3826117e5565b604051602001610bb391906128f7565b60405160208183030381529060405290506000610bcf83610df7565b90506000610bfd8383604051602001610be9929190612919565b604051602081830303815290604052611992565b9050600081604051602001610c12919061295e565b6040516020818303038152906040529050610c2d3386611b50565b610c378582611b6e565b610c416008611be2565b610c646040518060600160405280602581526020016137f8602591398633611bf8565b5050505050565b6000600560008473ffffffffffffffffffffffffffffffffffffffff1673ffffffffffffffffffffffffffffffffffffffff16815260200190815260200160002060008373ffffffffffffffffffffffffffffffffffffffff1673ffffffffffffffffffffffffffffffffffffffff16815260200190815260200160002060009054906101000a900460ff16905092915050565b610d07611084565b73ffffffffffffffffffffffffffffffffffffffff16610d25610904565b73ffffffffffffffffffffffffffffffffffffffff1614610d7b576040517f08c379a0000000000000000000000000000000000000000000000000000000008152600401610d7290612c22565b60405180910390fd5b600073ffffffffffffffffffffffffffffffffffffffff168173ffffffffffffffffffffffffffffffffffffffff161415610deb576040517f08c379a0000000000000000000000000000000000000000000000000000000008152600401610de290612a82565b60405180910390fd5b610df48161148a565b50565b60606000610e2b610e07846117e5565b604051602001610e1791906128d5565b604051602081830303815290604052611c97565b905060098054905081610e3e9190612fcd565b905060098181548110610e7a577f4e487b7100000000000000000000000000000000000000000000000000000000600052603260045260246000fd5b906000526020600020018054610e8f90612f21565b80601f0160208091040260200160405190810160405280929190818152602001828054610ebb90612f21565b8015610f085780601f10610edd57610100808354040283529160200191610f08565b820191906000526020600020905b815481529060010190602001808311610eeb57829003601f168201915b5050505050915050919050565b610fab81604051602401610f299190612a02565b6040516020818303038152906040527f41304fac000000000000000000000000000000000000000000000000000000007bffffffffffffffffffffffffffffffffffffffffffffffffffffffff19166020820180517bffffffffffffffffffffffffffffffffffffffffffffffffffffffff8381831617835250505050611cca565b50565b60007f01ffc9a7000000000000000000000000000000000000000000000000000000007bffffffffffffffffffffffffffffffffffffffffffffffffffffffff1916827bffffffffffffffffffffffffffffffffffffffffffffffffffffffff1916149050919050565b60008073ffffffffffffffffffffffffffffffffffffffff166002600084815260200190815260200160002060009054906101000a900473ffffffffffffffffffffffffffffffffffffffff1673ffffffffffffffffffffffffffffffffffffffff1614159050919050565b600033905090565b816004600083815260200190815260200160002060006101000a81548173ffffffffffffffffffffffffffffffffffffffff021916908373ffffffffffffffffffffffffffffffffffffffff160217905550808273ffffffffffffffffffffffffffffffffffffffff166110ff83610712565b73ffffffffffffffffffffffffffffffffffffffff167f8c5be1e5ebec7d5bd14f71427d1e84f3dd0314c0f7b2291e5b200ac8c7c3b92560405160405180910390a45050565b600061115082611018565b61118f576040517f08c379a000000000000000000000000000000000000000000000000000000000815260040161118690612b22565b60405180910390fd5b600061119a83610712565b90508073ffffffffffffffffffffffffffffffffffffffff168473ffffffffffffffffffffffffffffffffffffffff1614806111dc57506111db8185610c6b565b5b8061121a57508373ffffffffffffffffffffffffffffffffffffffff16611202846104f5565b73ffffffffffffffffffffffffffffffffffffffff16145b91505092915050565b8273ffffffffffffffffffffffffffffffffffffffff1661124382610712565b73ffffffffffffffffffffffffffffffffffffffff1614611299576040517f08c379a000000000000000000000000000000000000000000000000000000000815260040161129090612aa2565b60405180910390fd5b600073ffffffffffffffffffffffffffffffffffffffff168273ffffffffffffffffffffffffffffffffffffffff161415611309576040517f08c379a000000000000000000000000000000000000000000000000000000000815260040161130090612ae2565b60405180910390fd5b611314838383611cf3565b61131f60008261108c565b6001600360008573ffffffffffffffffffffffffffffffffffffffff1673ffffffffffffffffffffffffffffffffffffffff168152602001908152602001600020600082825461136f9190612e37565b925050819055506001600360008473ffffffffffffffffffffffffffffffffffffffff1673ffffffffffffffffffffffffffffffffffffffff16815260200190815260200160002060008282546113c69190612d56565b92505081905550816002600083815260200190815260200160002060006101000a81548173ffffffffffffffffffffffffffffffffffffffff021916908373ffffffffffffffffffffffffffffffffffffffff160217905550808273ffffffffffffffffffffffffffffffffffffffff168473ffffffffffffffffffffffffffffffffffffffff167fddf252ad1be2c89b69c2b068fc378daa952ba7f163c4a11628f55a4df523b3ef60405160405180910390a4611485838383611cf8565b505050565b6000600760009054906101000a900473ffffffffffffffffffffffffffffffffffffffff16905081600760006101000a81548173ffffffffffffffffffffffffffffffffffffffff021916908373ffffffffffffffffffffffffffffffffffffffff1602179055508173ffffffffffffffffffffffffffffffffffffffff168173ffffffffffffffffffffffffffffffffffffffff167f8be0079c531659141344cd1fd0a4f28419497f9722a3daafe3b4186f6b6457e060405160405180910390a35050565b8173ffffffffffffffffffffffffffffffffffffffff168373ffffffffffffffffffffffffffffffffffffffff1614156115bf576040517f08c379a00000000000000000000000000000000000000000000000000000000081526004016115b690612b02565b60405180910390fd5b80600560008573ffffffffffffffffffffffffffffffffffffffff1673ffffffffffffffffffffffffffffffffffffffff16815260200190815260200160002060008473ffffffffffffffffffffffffffffffffffffffff1673ffffffffffffffffffffffffffffffffffffffff16815260200190815260200160002060006101000a81548160ff0219169083151502179055508173ffffffffffffffffffffffffffffffffffffffff168373ffffffffffffffffffffffffffffffffffffffff167f17307eab39ab6107e8899845ad3d59bd9653f200f220920489ca2b5937696c31836040516116b091906129e7565b60405180910390a3505050565b6116c8848484611223565b6116d484848484611cfd565b611713576040517f08c379a000000000000000000000000000000000000000000000000000000000815260040161170a90612a62565b60405180910390fd5b50505050565b606060405180602001604052806000815250905090565b606061173b82611018565b61177a576040517f08c379a000000000000000000000000000000000000000000000000000000000815260040161177190612c42565b60405180910390fd5b6000611784611719565b905060008151116117a457604051806020016040528060008152506117cf565b806117ae846117e5565b6040516020016117bf9291906128b1565b6040516020818303038152906040525b915050919050565b600081600001549050919050565b6060600082141561182d576040518060400160405280600181526020017f3000000000000000000000000000000000000000000000000000000000000000815250905061198d565b600082905060005b6000821461185f57808061184890612f84565b915050600a826118589190612dac565b9150611835565b60008167ffffffffffffffff8111156118a1577f4e487b7100000000000000000000000000000000000000000000000000000000600052604160045260246000fd5b6040519080825280601f01601f1916602001820160405280156118d35781602001600182028036833780820191505090505b5090505b60008514611986576001826118ec9190612e37565b9150600a856118fb9190612fcd565b60306119079190612d56565b60f81b818381518110611943577f4e487b7100000000000000000000000000000000000000000000000000000000600052603260045260246000fd5b60200101907effffffffffffffffffffffffffffffffffffffffffffffffffffffffffffff1916908160001a905350600a8561197f9190612dac565b94506118d7565b8093505050505b919050565b606060008251905060008114156119bb5760405180602001604052806000815250915050611b4b565b600060036002836119cc9190612d56565b6119d69190612dac565b60046119e29190612ddd565b905060006020826119f39190612d56565b67ffffffffffffffff811115611a32577f4e487b7100000000000000000000000000000000000000000000000000000000600052604160045260246000fd5b6040519080825280601f01601f191660200182016040528015611a645781602001600182028036833780820191505090505b509050600060405180606001604052806040815260200161381d604091399050600181016020830160005b86811015611b085760038101905062ffffff818a015116603f8160121c168401518060081b905060ff603f83600c1c1686015116810190508060081b905060ff603f8360061c1686015116810190508060081b905060ff603f831686015116810190508060e01b90508084526004840193505050611a8f565b506003860660018114611b225760028114611b3257611b3d565b613d3d60f01b6002830352611b3d565b603d60f81b60018303525b508484525050819450505050505b919050565b611b6a828260405180602001604052806000815250611e94565b5050565b611b7782611018565b611bb6576040517f08c379a0000000000000000000000000000000000000000000000000000000008152600401611bad90612ba2565b60405180910390fd5b80600660008481526020019081526020016000209080519060200190611bdd9291906120ec565b505050565b6001816000016000828254019250508190555050565b611c92838383604051602401611c1093929190612a24565b6040516020818303038152906040527fe3849f79000000000000000000000000000000000000000000000000000000007bffffffffffffffffffffffffffffffffffffffffffffffffffffffff19166020820180517bffffffffffffffffffffffffffffffffffffffffffffffffffffffff8381831617835250505050611cca565b505050565b600081604051602001611caa919061289a565b6040516020818303038152906040528051906020012060001c9050919050565b60008151905060006a636f6e736f6c652e6c6f679050602083016000808483855afa5050505050565b505050565b505050565b6000611d1e8473ffffffffffffffffffffffffffffffffffffffff16611eef565b15611e87578373ffffffffffffffffffffffffffffffffffffffff1663150b7a02611d47611084565b8786866040518563ffffffff1660e01b8152600401611d69949392919061299b565b602060405180830381600087803b158015611d8357600080fd5b505af1925050508015611db457506040513d601f19601f82011682018060405250810190611db19190612430565b60015b611e37573d8060008114611de4576040519150601f19603f3d011682016040523d82523d6000602084013e611de9565b606091505b50600081511415611e2f576040517f08c379a0000000000000000000000000000000000000000000000000000000008152600401611e2690612a62565b60405180910390fd5b805181602001fd5b63150b7a0260e01b7bffffffffffffffffffffffffffffffffffffffffffffffffffffffff1916817bffffffffffffffffffffffffffffffffffffffffffffffffffffffff191614915050611e8c565b600190505b949350505050565b611e9e8383611f12565b611eab6000848484611cfd565b611eea576040517f08c379a0000000000000000000000000000000000000000000000000000000008152600401611ee190612a62565b60405180910390fd5b505050565b6000808273ffffffffffffffffffffffffffffffffffffffff163b119050919050565b600073ffffffffffffffffffffffffffffffffffffffff168273ffffffffffffffffffffffffffffffffffffffff161415611f82576040517f08c379a0000000000000000000000000000000000000000000000000000000008152600401611f7990612bc2565b60405180910390fd5b611f8b81611018565b15611fcb576040517f08c379a0000000000000000000000000000000000000000000000000000000008152600401611fc290612ac2565b60405180910390fd5b611fd760008383611cf3565b6001600360008473ffffffffffffffffffffffffffffffffffffffff1673ffffffffffffffffffffffffffffffffffffffff16815260200190815260200160002060008282546120279190612d56565b92505081905550816002600083815260200190815260200160002060006101000a81548173ffffffffffffffffffffffffffffffffffffffff021916908373ffffffffffffffffffffffffffffffffffffffff160217905550808273ffffffffffffffffffffffffffffffffffffffff16600073ffffffffffffffffffffffffffffffffffffffff167fddf252ad1be2c89b69c2b068fc378daa952ba7f163c4a11628f55a4df523b3ef60405160405180910390a46120e860008383611cf8565b5050565b8280546120f890612f21565b90600052602060002090601f01602090048101928261211a5760008555612161565b82601f1061213357805160ff1916838001178555612161565b82800160010185558215612161579182015b82811115612160578251825591602001919060010190612145565b5b50905061216e9190612172565b5090565b5b8082111561218b576000816000905550600101612173565b5090565b60006121a261219d84612ce2565b612cbd565b9050828152602081018484840111156121ba57600080fd5b6121c5848285612edf565b509392505050565b6000813590506121dc8161379b565b92915050565b6000813590506121f1816137b2565b92915050565b600081359050612206816137c9565b92915050565b60008151905061221b816137c9565b92915050565b600082601f83011261223257600080fd5b813561224284826020860161218f565b91505092915050565b60008135905061225a816137e0565b92915050565b60006020828403121561227257600080fd5b6000612280848285016121cd565b91505092915050565b6000806040838503121561229c57600080fd5b60006122aa858286016121cd565b92505060206122bb858286016121cd565b9150509250929050565b6000806000606084860312156122da57600080fd5b60006122e8868287016121cd565b93505060206122f9868287016121cd565b925050604061230a8682870161224b565b9150509250925092565b6000806000806080858703121561232a57600080fd5b6000612338878288016121cd565b9450506020612349878288016121cd565b935050604061235a8782880161224b565b925050606085013567ffffffffffffffff81111561237757600080fd5b61238387828801612221565b91505092959194509250565b600080604083850312156123a257600080fd5b60006123b0858286016121cd565b92505060206123c1858286016121e2565b9150509250929050565b600080604083850312156123de57600080fd5b60006123ec858286016121cd565b92505060206123fd8582860161224b565b9150509250929050565b60006020828403121561241957600080fd5b6000612427848285016121f7565b91505092915050565b60006020828403121561244257600080fd5b60006124508482850161220c565b91505092915050565b60006020828403121561246b57600080fd5b60006124798482850161224b565b91505092915050565b61248b81612e6b565b82525050565b61249a81612e7d565b82525050565b60006124ab82612d13565b6124b58185612d29565b93506124c5818560208601612eee565b6124ce816130ba565b840191505092915050565b60006124e482612d1e565b6124ee8185612d3a565b93506124fe818560208601612eee565b612507816130ba565b840191505092915050565b600061251d82612d1e565b6125278185612d4b565b9350612537818560208601612eee565b80840191505092915050565b6000612550603283612d3a565b915061255b826130cb565b604082019050919050565b6000612573602683612d3a565b915061257e8261311a565b604082019050919050565b6000612596602583612d3a565b91506125a182613169565b604082019050919050565b60006125b9601c83612d3a565b91506125c4826131b8565b602082019050919050565b60006125dc602483612d3a565b91506125e7826131e1565b604082019050919050565b60006125ff601983612d3a565b915061260a82613230565b602082019050919050565b6000612622602c83612d3a565b915061262d82613259565b604082019050919050565b6000612645600583612d4b565b9150612650826132a8565b600582019050919050565b6000612668600e83612d4b565b9150612673826132d1565b600e82019050919050565b600061268b60cf83612d4b565b9150612696826132fa565b60cf82019050919050565b60006126ae603883612d3a565b91506126b982613407565b604082019050919050565b60006126d1602a83612d3a565b91506126dc82613456565b604082019050919050565b60006126f4602983612d3a565b91506126ff826134a5565b604082019050919050565b6000612717602e83612d3a565b9150612722826134f4565b604082019050919050565b600061273a600283612d4b565b915061274582613543565b600282019050919050565b600061275d602083612d3a565b91506127688261356c565b602082019050919050565b6000612780603183612d3a565b915061278b82613595565b604082019050919050565b60006127a3602c83612d3a565b91506127ae826135e4565b604082019050919050565b60006127c6602083612d3a565b91506127d182613633565b602082019050919050565b60006127e9602f83612d3a565b91506127f48261365c565b604082019050919050565b600061280c600a83612d4b565b9150612817826136ab565b600a82019050919050565b600061282f602183612d3a565b915061283a826136d4565b604082019050919050565b6000612852601d83612d4b565b915061285d82613723565b601d82019050919050565b6000612875603183612d3a565b91506128808261374c565b604082019050919050565b61289481612ed5565b82525050565b60006128a68284612512565b915081905092915050565b60006128bd8285612512565b91506128c98284612512565b91508190509392505050565b60006128e082612638565b91506128ec8284612512565b915081905092915050565b60006129028261265b565b915061290e8284612512565b915081905092915050565b6000612924826127ff565b91506129308285612512565b915061293b8261267e565b91506129478284612512565b91506129528261272d565b91508190509392505050565b600061296982612845565b91506129758284612512565b915081905092915050565b60006020820190506129956000830184612482565b92915050565b60006080820190506129b06000830187612482565b6129bd6020830186612482565b6129ca604083018561288b565b81810360608301526129dc81846124a0565b905095945050505050565b60006020820190506129fc6000830184612491565b92915050565b60006020820190508181036000830152612a1c81846124d9565b905092915050565b60006060820190508181036000830152612a3e81866124d9565b9050612a4d602083018561288b565b612a5a6040830184612482565b949350505050565b60006020820190508181036000830152612a7b81612543565b9050919050565b60006020820190508181036000830152612a9b81612566565b9050919050565b60006020820190508181036000830152612abb81612589565b9050919050565b60006020820190508181036000830152612adb816125ac565b9050919050565b60006020820190508181036000830152612afb816125cf565b9050919050565b60006020820190508181036000830152612b1b816125f2565b9050919050565b60006020820190508181036000830152612b3b81612615565b9050919050565b60006020820190508181036000830152612b5b816126a1565b9050919050565b60006020820190508181036000830152612b7b816126c4565b9050919050565b60006020820190508181036000830152612b9b816126e7565b9050919050565b60006020820190508181036000830152612bbb8161270a565b9050919050565b60006020820190508181036000830152612bdb81612750565b9050919050565b60006020820190508181036000830152612bfb81612773565b9050919050565b60006020820190508181036000830152612c1b81612796565b9050919050565b60006020820190508181036000830152612c3b816127b9565b9050919050565b60006020820190508181036000830152612c5b816127dc565b9050919050565b60006020820190508181036000830152612c7b81612822565b9050919050565b60006020820190508181036000830152612c9b81612868565b9050919050565b6000602082019050612cb7600083018461288b565b92915050565b6000612cc7612cd8565b9050612cd38282612f53565b919050565b6000604051905090565b600067ffffffffffffffff821115612cfd57612cfc61308b565b5b612d06826130ba565b9050602081019050919050565b600081519050919050565b600081519050919050565b600082825260208201905092915050565b600082825260208201905092915050565b600081905092915050565b6000612d6182612ed5565b9150612d6c83612ed5565b9250827fffffffffffffffffffffffffffffffffffffffffffffffffffffffffffffffff03821115612da157612da0612ffe565b5b828201905092915050565b6000612db782612ed5565b9150612dc283612ed5565b925082612dd257612dd161302d565b5b828204905092915050565b6000612de882612ed5565b9150612df383612ed5565b9250817fffffffffffffffffffffffffffffffffffffffffffffffffffffffffffffffff0483118215151615612e2c57612e2b612ffe565b5b828202905092915050565b6000612e4282612ed5565b9150612e4d83612ed5565b925082821015612e6057612e5f612ffe565b5b828203905092915050565b6000612e7682612eb5565b9050919050565b60008115159050919050565b60007fffffffff0000000000000000000000000000000000000000000000000000000082169050919050565b600073ffffffffffffffffffffffffffffffffffffffff82169050919050565b6000819050919050565b82818337600083830152505050565b60005b83811015612f0c578082015181840152602081019050612ef1565b83811115612f1b576000848401525b50505050565b60006002820490506001821680612f3957607f821691505b60208210811415612f4d57612f4c61305c565b5b50919050565b612f5c826130ba565b810181811067ffffffffffffffff82111715612f7b57612f7a61308b565b5b80604052505050565b6000612f8f82612ed5565b91507fffffffffffffffffffffffffffffffffffffffffffffffffffffffffffffffff821415612fc257612fc1612ffe565b5b600182019050919050565b6000612fd882612ed5565b9150612fe383612ed5565b925082612ff357612ff261302d565b5b828206905092915050565b7f4e487b7100000000000000000000000000000000000000000000000000000000600052601160045260246000fd5b7f4e487b7100000000000000000000000000000000000000000000000000000000600052601260045260246000fd5b7f4e487b7100000000000000000000000000000000000000000000000000000000600052602260045260246000fd5b7f4e487b7100000000000000000000000000000000000000000000000000000000600052604160045260246000fd5b6000601f19601f8301169050919050565b7f4552433732313a207472616e7366657220746f206e6f6e20455243373231526560008201527f63656976657220696d706c656d656e7465720000000000000000000000000000602082015250565b7f4f776e61626c653a206e6577206f776e657220697320746865207a65726f206160008201527f6464726573730000000000000000000000000000000000000000000000000000602082015250565b7f4552433732313a207472616e736665722066726f6d20696e636f72726563742060008201527f6f776e6572000000000000000000000000000000000000000000000000000000602082015250565b7f4552433732313a20746f6b656e20616c7265616479206d696e74656400000000600082015250565b7f4552433732313a207472616e7366657220746f20746865207a65726f2061646460008201527f7265737300000000000000000000000000000000000000000000000000000000602082015250565b7f4552433732313a20617070726f766520746f2063616c6c657200000000000000600082015250565b7f4552433732313a206f70657261746f7220717565727920666f72206e6f6e657860008201527f697374656e7420746f6b656e0000000000000000000000000000000000000000602082015250565b7f4d41464941000000000000000000000000000000000000000000000000000000600082015250565b7f4d61666961204d6f6e6b65792023000000000000000000000000000000000000600082015250565b7f222c20226465736372697074696f6e223a20224120686967686c79206163636c60008201527f61696d656420636f6c6c656374696f6e206f66204d61666961204d6f6e6b657960208201527f732067656e657261746564206f6e6c696e652062792044414c4c2d45204d696e60408201527f692c20616e20696d6167652067656e657261746f722041727469666963616c2060608201527f496e74656c6c6967656e6365202868747470733a2f2f68756767696e6766616360808201527f652e636f2f7370616365732f64616c6c652d6d696e692f64616c6c652d6d696e60a08201527f6929222c2022696d616765223a2022000000000000000000000000000000000060c082015250565b7f4552433732313a20617070726f76652063616c6c6572206973206e6f74206f7760008201527f6e6572206e6f7220617070726f76656420666f7220616c6c0000000000000000602082015250565b7f4552433732313a2062616c616e636520717565727920666f7220746865207a6560008201527f726f206164647265737300000000000000000000000000000000000000000000602082015250565b7f4552433732313a206f776e657220717565727920666f72206e6f6e657869737460008201527f656e7420746f6b656e0000000000000000000000000000000000000000000000602082015250565b7f45524337323155524953746f726167653a2055524920736574206f66206e6f6e60008201527f6578697374656e7420746f6b656e000000000000000000000000000000000000602082015250565b7f227d000000000000000000000000000000000000000000000000000000000000600082015250565b7f4552433732313a206d696e7420746f20746865207a65726f2061646472657373600082015250565b7f45524337323155524953746f726167653a2055524920717565727920666f722060008201527f6e6f6e6578697374656e7420746f6b656e000000000000000000000000000000602082015250565b7f4552433732313a20617070726f76656420717565727920666f72206e6f6e657860008201527f697374656e7420746f6b656e0000000000000000000000000000000000000000602082015250565b7f4f776e61626c653a2063616c6c6572206973206e6f7420746865206f776e6572600082015250565b7f4552433732314d657461646174613a2055524920717565727920666f72206e6f60008201527f6e6578697374656e7420746f6b656e0000000000000000000000000000000000602082015250565b7f7b226e616d65223a202200000000000000000000000000000000000000000000600082015250565b7f4552433732313a20617070726f76616c20746f2063757272656e74206f776e6560008201527f7200000000000000000000000000000000000000000000000000000000000000602082015250565b7f646174613a6170706c69636174696f6e2f6a736f6e3b6261736536342c000000600082015250565b7f4552433732313a207472616e736665722063616c6c6572206973206e6f74206f60008201527f776e6572206e6f7220617070726f766564000000000000000000000000000000602082015250565b6137a481612e6b565b81146137af57600080fd5b50565b6137bb81612e7d565b81146137c657600080fd5b50565b6137d281612e89565b81146137dd57600080fd5b50565b6137e981612ed5565b81146137f457600080fd5b5056fe416e204e465420772f20494420257320686173206265656e206d696e74656420746f2025734142434445464748494a4b4c4d4e4f505152535455565758595a6162636465666768696a6b6c6d6e6f707172737475767778797a303132333435363738392b2fa264697066735822122000405b405ae61426662587d7314a4bc2bbe82262475f8b4f65bdba0e874e38ff64736f6c6343000801003368747470733a2f2f676174657761792e70696e6174612e636c6f75642f697066732f516d586f757a77636a4d4731584d52484771426769626d674e65366a5958784651633774315a716d57596f4657712f4d616669612f31302e706e6768747470733a2f2f676174657761792e70696e6174612e636c6f75642f697066732f516d586f757a77636a4d4731584d52484771426769626d674e65366a5958784651633774315a716d57596f4657712f4d616669612f30372e706e6768747470733a2f2f676174657761792e70696e6174612e636c6f75642f697066732f516d586f757a77636a4d4731584d52484771426769626d674e65366a5958784651633774315a716d57596f4657712f4d616669612f31342e706e6768747470733a2f2f676174657761792e70696e6174612e636c6f75642f697066732f516d586f757a77636a4d4731584d52484771426769626d674e65366a5958784651633774315a716d57596f4657712f4d616669612f31362e706e6768747470733a2f2f676174657761792e70696e6174612e636c6f75642f697066732f516d586f757a77636a4d4731584d52484771426769626d674e65366a5958784651633774315a716d57596f4657712f4d616669612f30392e706e6768747470733a2f2f676174657761792e70696e6174612e636c6f75642f697066732f516d586f757a77636a4d4731584d52484771426769626d674e65366a5958784651633774315a716d57596f4657712f4d616669612f32322e706e6768747470733a2f2f676174657761792e70696e6174612e636c6f75642f697066732f516d586f757a77636a4d4731584d52484771426769626d674e65366a5958784651633774315a716d57596f4657712f4d616669612f31352e706e6768747470733a2f2f676174657761792e70696e6174612e636c6f75642f697066732f516d586f757a77636a4d4731584d52484771426769626d674e65366a5958784651633774315a716d57596f4657712f4d616669612f30352e706e6768747470733a2f2f676174657761792e70696e6174612e636c6f75642f697066732f516d586f757a77636a4d4731584d52484771426769626d674e65366a5958784651633774315a716d57596f4657712f4d616669612f31312e706e6768747470733a2f2f676174657761792e70696e6174612e636c6f75642f697066732f516d586f757a77636a4d4731584d52484771426769626d674e65366a5958784651633774315a716d57596f4657712f4d616669612f32312e706e6768747470733a2f2f676174657761792e70696e6174612e636c6f75642f697066732f516d586f757a77636a4d4731584d52484771426769626d674e65366a5958784651633774315a716d57596f4657712f4d616669612f30312e706e6768747470733a2f2f676174657761792e70696e6174612e636c6f75642f697066732f516d586f757a77636a4d4731584d52484771426769626d674e65366a5958784651633774315a716d57596f4657712f4d616669612f30332e706e6768747470733a2f2f676174657761792e70696e6174612e636c6f75642f697066732f516d586f757a77636a4d4731584d52484771426769626d674e65366a5958784651633774315a716d57596f4657712f4d616669612f31332e706e6768747470733a2f2f676174657761792e70696e6174612e636c6f75642f697066732f516d586f757a77636a4d4731584d52484771426769626d674e65366a5958784651633774315a716d57596f4657712f4d616669612f30362e706e6768747470733a2f2f676174657761792e70696e6174612e636c6f75642f697066732f516d586f757a77636a4d4731584d52484771426769626d674e65366a5958784651633774315a716d57596f4657712f4d616669612f31322e706e6768747470733a2f2f676174657761792e70696e6174612e636c6f75642f697066732f516d586f757a77636a4d4731584d52484771426769626d674e65366a5958784651633774315a716d57596f4657712f4d616669612f31382e706e6768747470733a2f2f676174657761792e70696e6174612e636c6f75642f697066732f516d586f757a77636a4d4731584d52484771426769626d674e65366a5958784651633774315a716d57596f4657712f4d616669612f32302e706e6768747470733a2f2f676174657761792e70696e6174612e636c6f75642f697066732f516d586f757a77636a4d4731584d52484771426769626d674e65366a5958784651633774315a716d57596f4657712f4d616669612f31392e706e6768747470733a2f2f676174657761792e70696e6174612e636c6f75642f697066732f516d586f757a77636a4d4731584d52484771426769626d674e65366a5958784651633774315a716d57596f4657712f4d616669612f30322e706e6768747470733a2f2f676174657761792e70696e6174612e636c6f75642f697066732f516d586f757a77636a4d4731584d52484771426769626d674e65366a5958784651633774315a716d57596f4657712f4d616669612f31372e706e6768747470733a2f2f676174657761792e70696e6174612e636c6f75642f697066732f516d586f757a77636a4d4731584d52484771426769626d674e65366a5958784651633774315a716d57596f4657712f4d616669612f30382e706e6768747470733a2f2f676174657761792e70696e6174612e636c6f75642f697066732f516d586f757a77636a4d4731584d52484771426769626d674e65366a5958784651633774315a716d57596f4657712f4d616669612f30342e706e67",
  "linkReferences": {},
  "deployedLinkReferences": {}
}