{
  "_format": "hh-sol-artifact-1",
  "contractName": "MafiaMonkeysNFT",
  "sourceName": "contracts/MafiaMonkeysNFT.sol",
  "abi": [
    {
      "inputs": [],
      "stateMutability": "nonpayable",
      "type": "constructor"
    },
    {
      "anonymous": false,
      "inputs": [
        {
          "indexed": true,
          "internalType": "address",
          "name": "owner",
          "type": "address"
        },
        {
          "indexed": true,
          "internalType": "address",
          "name": "approved",
          "type": "address"
        },
        {
          "indexed": true,
          "internalType": "uint256",
          "name": "tokenId",
          "type": "uint256"
        }
      ],
      "name": "Approval",
      "type": "event"
    },
    {
      "anonymous": false,
      "inputs": [
        {
          "indexed": true,
          "internalType": "address",
          "name": "owner",
          "type": "address"
        },
        {
          "indexed": true,
          "internalType": "address",
          "name": "operator",
          "type": "address"
        },
        {
          "indexed": false,
          "internalType": "bool",
          "name": "approved",
          "type": "bool"
        }
      ],
      "name": "ApprovalForAll",
      "type": "event"
    },
    {
      "anonymous": false,
      "inputs": [
        {
          "indexed": false,
          "internalType": "address",
          "name": "sender",
          "type": "address"
        },
        {
          "indexed": false,
          "internalType": "uint256",
          "name": "tokenId",
          "type": "uint256"
        }
      ],
      "name": "NewMafiaMonkeysNFTMinted",
      "type": "event"
    },
    {
      "anonymous": false,
      "inputs": [
        {
          "indexed": true,
          "internalType": "address",
          "name": "previousOwner",
          "type": "address"
        },
        {
          "indexed": true,
          "internalType": "address",
          "name": "newOwner",
          "type": "address"
        }
      ],
      "name": "OwnershipTransferred",
      "type": "event"
    },
    {
      "anonymous": false,
      "inputs": [
        {
          "indexed": true,
          "internalType": "address",
          "name": "from",
          "type": "address"
        },
        {
          "indexed": true,
          "internalType": "address",
          "name": "to",
          "type": "address"
        },
        {
          "indexed": true,
          "internalType": "uint256",
          "name": "tokenId",
          "type": "uint256"
        }
      ],
      "name": "Transfer",
      "type": "event"
    },
    {
      "inputs": [
        {
          "internalType": "address",
          "name": "to",
          "type": "address"
        },
        {
          "internalType": "uint256",
          "name": "tokenId",
          "type": "uint256"
        }
      ],
      "name": "approve",
      "outputs": [],
      "stateMutability": "nonpayable",
      "type": "function"
    },
    {
      "inputs": [
        {
          "internalType": "address",
          "name": "owner",
          "type": "address"
        }
      ],
      "name": "balanceOf",
      "outputs": [
        {
          "internalType": "uint256",
          "name": "",
          "type": "uint256"
        }
      ],
      "stateMutability": "view",
      "type": "function"
    },
    {
      "inputs": [],
      "name": "contractBalance",
      "outputs": [
        {
          "internalType": "uint256",
          "name": "",
          "type": "uint256"
        }
      ],
      "stateMutability": "view",
      "type": "function"
    },
    {
      "inputs": [
        {
          "internalType": "uint256",
          "name": "tokenId",
          "type": "uint256"
        }
      ],
      "name": "getApproved",
      "outputs": [
        {
          "internalType": "address",
          "name": "",
          "type": "address"
        }
      ],
      "stateMutability": "view",
      "type": "function"
    },
    {
      "inputs": [],
      "name": "getMintPrice",
      "outputs": [
        {
          "internalType": "uint256",
          "name": "",
          "type": "uint256"
        }
      ],
      "stateMutability": "pure",
      "type": "function"
    },
    {
      "inputs": [
        {
          "internalType": "uint256",
          "name": "tokenId",
          "type": "uint256"
        }
      ],
      "name": "getRandomMonkeyImage",
      "outputs": [
        {
          "internalType": "string",
          "name": "",
          "type": "string"
        }
      ],
      "stateMutability": "view",
      "type": "function"
    },
    {
      "inputs": [
        {
          "internalType": "address",
          "name": "owner",
          "type": "address"
        },
        {
          "internalType": "address",
          "name": "operator",
          "type": "address"
        }
      ],
      "name": "isApprovedForAll",
      "outputs": [
        {
          "internalType": "bool",
          "name": "",
          "type": "bool"
        }
      ],
      "stateMutability": "view",
      "type": "function"
    },
    {
      "inputs": [],
      "name": "makeAnEpicNFT",
      "outputs": [],
      "stateMutability": "payable",
      "type": "function"
    },
    {
      "inputs": [],
      "name": "name",
      "outputs": [
        {
          "internalType": "string",
          "name": "",
          "type": "string"
        }
      ],
      "stateMutability": "view",
      "type": "function"
    },
    {
      "inputs": [],
      "name": "owner",
      "outputs": [
        {
          "internalType": "address",
          "name": "",
          "type": "address"
        }
      ],
      "stateMutability": "view",
      "type": "function"
    },
    {
      "inputs": [
        {
          "internalType": "uint256",
          "name": "tokenId",
          "type": "uint256"
        }
      ],
      "name": "ownerOf",
      "outputs": [
        {
          "internalType": "address",
          "name": "",
          "type": "address"
        }
      ],
      "stateMutability": "view",
      "type": "function"
    },
    {
      "inputs": [],
      "name": "renounceOwnership",
      "outputs": [],
      "stateMutability": "nonpayable",
      "type": "function"
    },
    {
      "inputs": [
        {
          "internalType": "address",
          "name": "from",
          "type": "address"
        },
        {
          "internalType": "address",
          "name": "to",
          "type": "address"
        },
        {
          "internalType": "uint256",
          "name": "tokenId",
          "type": "uint256"
        }
      ],
      "name": "safeTransferFrom",
      "outputs": [],
      "stateMutability": "nonpayable",
      "type": "function"
    },
    {
      "inputs": [
        {
          "internalType": "address",
          "name": "from",
          "type": "address"
        },
        {
          "internalType": "address",
          "name": "to",
          "type": "address"
        },
        {
          "internalType": "uint256",
          "name": "tokenId",
          "type": "uint256"
        },
        {
          "internalType": "bytes",
          "name": "_data",
          "type": "bytes"
        }
      ],
      "name": "safeTransferFrom",
      "outputs": [],
      "stateMutability": "nonpayable",
      "type": "function"
    },
    {
      "inputs": [
        {
          "internalType": "address",
          "name": "operator",
          "type": "address"
        },
        {
          "internalType": "bool",
          "name": "approved",
          "type": "bool"
        }
      ],
      "name": "setApprovalForAll",
      "outputs": [],
      "stateMutability": "nonpayable",
      "type": "function"
    },
    {
      "inputs": [
        {
          "internalType": "bytes4",
          "name": "interfaceId",
          "type": "bytes4"
        }
      ],
      "name": "supportsInterface",
      "outputs": [
        {
          "internalType": "bool",
          "name": "",
          "type": "bool"
        }
      ],
      "stateMutability": "view",
      "type": "function"
    },
    {
      "inputs": [],
      "name": "symbol",
      "outputs": [
        {
          "internalType": "string",
          "name": "",
          "type": "string"
        }
      ],
      "stateMutability": "view",
      "type": "function"
    },
    {
      "inputs": [
        {
          "internalType": "uint256",
          "name": "tokenId",
          "type": "uint256"
        }
      ],
      "name": "tokenURI",
      "outputs": [
        {
          "internalType": "string",
          "name": "",
          "type": "string"
        }
      ],
      "stateMutability": "view",
      "type": "function"
    },
    {
      "inputs": [
        {
          "internalType": "address",
          "name": "from",
          "type": "address"
        },
        {
          "internalType": "address",
          "name": "to",
          "type": "address"
        },
        {
          "internalType": "uint256",
          "name": "tokenId",
          "type": "uint256"
        }
      ],
      "name": "transferFrom",
      "outputs": [],
      "stateMutability": "nonpayable",
      "type": "function"
    },
    {
      "inputs": [
        {
          "internalType": "address",
          "name": "newOwner",
          "type": "address"
        }
      ],
      "name": "transferOwnership",
      "outputs": [],
      "stateMutability": "nonpayable",
      "type": "function"
    }
  ],
  "bytecode": "0x6080604052604051806102c001604052806040518060800160405280605d8152602001620047d2605d913981526020016040518060800160405280605d815260200162004aba605d913981526020016040518060800160405280605d81526020016200482f605d913981526020016040518060800160405280605d815260200162004bd1605d913981526020016040518060800160405280605d8152602001620046bb605d913981526020016040518060800160405280605d8152602001620048e9605d913981526020016040518060800160405280605d81526020016200448d605d913981526020016040518060800160405280605d815260200162004b74605d913981526020016040518060800160405280605d8152602001620045a4605d913981526020016040518060800160405280605d815260200162004430605d913981526020016040518060800160405280605d815260200162004718605d913981526020016040518060800160405280605d815260200162004946605d913981526020016040518060800160405280605d81526020016200488c605d913981526020016040518060800160405280605d8152602001620044ea605d913981526020016040518060800160405280605d81526020016200465e605d913981526020016040518060800160405280605d815260200162004547605d913981526020016040518060800160405280605d815260200162004b17605d913981526020016040518060800160405280605d8152602001620049a3605d913981526020016040518060800160405280605d815260200162004a5d605d913981526020016040518060800160405280605d815260200162004a00605d913981526020016040518060800160405280605d815260200162004775605d913981526020016040518060800160405280605d815260200162004601605d91398152506009906016620002ca92919062000584565b50348015620002d857600080fd5b506040518060400160405280601181526020017f4d61666961204d6f6e6b657973204e46540000000000000000000000000000008152506040518060400160405280600f81526020017f4d414649414d4f4e4b4559534e4654000000000000000000000000000000000081525081600090805190602001906200035d929190620005eb565b50806001908051906020019062000376929190620005eb565b505050620003996200038d620003ea60201b60201c565b620003f260201b60201c565b620003e46040518060400160405280601b81526020017f54686973206973204d79204e465420436f6e74616374204c4f4c210000000000815250620004b860201b620011261760201c565b62000836565b600033905090565b6000600760009054906101000a900473ffffffffffffffffffffffffffffffffffffffff16905081600760006101000a81548173ffffffffffffffffffffffffffffffffffffffff021916908373ffffffffffffffffffffffffffffffffffffffff1602179055508173ffffffffffffffffffffffffffffffffffffffff168173ffffffffffffffffffffffffffffffffffffffff167f8be0079c531659141344cd1fd0a4f28419497f9722a3daafe3b4186f6b6457e060405160405180910390a35050565b6200055881604051602401620004cf91906200074a565b6040516020818303038152906040527f41304fac000000000000000000000000000000000000000000000000000000007bffffffffffffffffffffffffffffffffffffffffffffffffffffffff19166020820180517bffffffffffffffffffffffffffffffffffffffffffffffffffffffff83818316178352505050506200055b60201b60201c565b50565b60008151905060006a636f6e736f6c652e6c6f679050602083016000808483855afa5050505050565b828054828255906000526020600020908101928215620005d8579160200282015b82811115620005d7578251829080519060200190620005c6929190620005eb565b5091602001919060010190620005a5565b5b509050620005e791906200067c565b5090565b828054620005f990620007c0565b90600052602060002090601f0160209004810192826200061d576000855562000669565b82601f106200063857805160ff191683800117855562000669565b8280016001018555821562000669579182015b82811115620006685782518255916020019190600101906200064b565b5b509050620006789190620006a4565b5090565b5b80821115620006a05760008181620006969190620006c3565b506001016200067d565b5090565b5b80821115620006bf576000816000905550600101620006a5565b5090565b508054620006d190620007c0565b6000825580601f10620006e5575062000706565b601f016020900490600052602060002090810190620007059190620006a4565b5b50565b600062000716826200076e565b62000722818562000779565b9350620007348185602086016200078a565b6200073f8162000825565b840191505092915050565b6000602082019050818103600083015262000766818462000709565b905092915050565b600081519050919050565b600082825260208201905092915050565b60005b83811015620007aa5780820151818401526020810190506200078d565b83811115620007ba576000848401525b50505050565b60006002820490506001821680620007d957607f821691505b60208210811415620007f057620007ef620007f6565b5b50919050565b7f4e487b7100000000000000000000000000000000000000000000000000000000600052602260045260246000fd5b6000601f19601f8301169050919050565b613bea80620008466000396000f3fe60806040526004361061011f5760003560e01c80638da5cb5b116100a0578063c87b56dd11610064578063c87b56dd146103d3578063de9d132f14610410578063e985e9c51461041a578063f2fde38b14610457578063fcdea762146104805761011f565b80638da5cb5b1461030057806395d89b411461032b578063a22cb46514610356578063a7f93ebd1461037f578063b88d4fde146103aa5761011f565b806342842e0e116100e757806342842e0e1461021b5780636352211e1461024457806370a0823114610281578063715018a6146102be5780638b7afe2e146102d55761011f565b806301ffc9a71461012457806306fdde0314610161578063081812fc1461018c578063095ea7b3146101c957806323b872dd146101f2575b600080fd5b34801561013057600080fd5b5061014b60048036038101906101469190612618565b6104bd565b6040516101589190612ca1565b60405180910390f35b34801561016d57600080fd5b5061017661059f565b6040516101839190612cbc565b60405180910390f35b34801561019857600080fd5b506101b360048036038101906101ae919061266a565b610631565b6040516101c09190612c11565b60405180910390f35b3480156101d557600080fd5b506101f060048036038101906101eb91906125dc565b6106b6565b005b3480156101fe57600080fd5b50610219600480360381019061021491906124d6565b6107ce565b005b34801561022757600080fd5b50610242600480360381019061023d91906124d6565b61082e565b005b34801561025057600080fd5b5061026b6004803603810190610266919061266a565b61084e565b6040516102789190612c11565b60405180910390f35b34801561028d57600080fd5b506102a860048036038101906102a39190612471565b610900565b6040516102b59190612f5c565b60405180910390f35b3480156102ca57600080fd5b506102d36109b8565b005b3480156102e157600080fd5b506102ea610a40565b6040516102f79190612f5c565b60405180910390f35b34801561030c57600080fd5b50610315610a48565b6040516103229190612c11565b60405180910390f35b34801561033757600080fd5b50610340610a72565b60405161034d9190612cbc565b60405180910390f35b34801561036257600080fd5b5061037d600480360381019061037891906125a0565b610b04565b005b34801561038b57600080fd5b50610394610b1a565b6040516103a19190612f5c565b60405180910390f35b3480156103b657600080fd5b506103d160048036038101906103cc9190612525565b610b29565b005b3480156103df57600080fd5b506103fa60048036038101906103f5919061266a565b610b8b565b6040516104079190612cbc565b60405180910390f35b610418610cdd565b005b34801561042657600080fd5b50610441600480360381019061043c919061249a565b610e7c565b60405161044e9190612ca1565b60405180910390f35b34801561046357600080fd5b5061047e60048036038101906104799190612471565b610f10565b005b34801561048c57600080fd5b506104a760048036038101906104a2919061266a565b611008565b6040516104b49190612cbc565b60405180910390f35b60007f80ac58cd000000000000000000000000000000000000000000000000000000007bffffffffffffffffffffffffffffffffffffffffffffffffffffffff1916827bffffffffffffffffffffffffffffffffffffffffffffffffffffffff1916148061058857507f5b5e139f000000000000000000000000000000000000000000000000000000007bffffffffffffffffffffffffffffffffffffffffffffffffffffffff1916827bffffffffffffffffffffffffffffffffffffffffffffffffffffffff1916145b806105985750610597826111bf565b5b9050919050565b6060600080546105ae906131db565b80601f01602080910402602001604051908101604052809291908181526020018280546105da906131db565b80156106275780601f106105fc57610100808354040283529160200191610627565b820191906000526020600020905b81548152906001019060200180831161060a57829003601f168201915b5050505050905090565b600061063c82611229565b61067b576040517f08c379a000000000000000000000000000000000000000000000000000000000815260040161067290612ebc565b60405180910390fd5b6004600083815260200190815260200160002060009054906101000a900473ffffffffffffffffffffffffffffffffffffffff169050919050565b60006106c18261084e565b90508073ffffffffffffffffffffffffffffffffffffffff168373ffffffffffffffffffffffffffffffffffffffff161415610732576040517f08c379a000000000000000000000000000000000000000000000000000000000815260040161072990612f1c565b60405180910390fd5b8073ffffffffffffffffffffffffffffffffffffffff16610751611295565b73ffffffffffffffffffffffffffffffffffffffff161480610780575061077f8161077a611295565b610e7c565b5b6107bf576040517f08c379a00000000000000000000000000000000000000000000000000000000081526004016107b690612dfc565b60405180910390fd5b6107c9838361129d565b505050565b6107df6107d9611295565b82611356565b61081e576040517f08c379a000000000000000000000000000000000000000000000000000000000815260040161081590612f3c565b60405180910390fd5b610829838383611434565b505050565b61084983838360405180602001604052806000815250610b29565b505050565b6000806002600084815260200190815260200160002060009054906101000a900473ffffffffffffffffffffffffffffffffffffffff169050600073ffffffffffffffffffffffffffffffffffffffff168173ffffffffffffffffffffffffffffffffffffffff1614156108f7576040517f08c379a00000000000000000000000000000000000000000000000000000000081526004016108ee90612e3c565b60405180910390fd5b80915050919050565b60008073ffffffffffffffffffffffffffffffffffffffff168273ffffffffffffffffffffffffffffffffffffffff161415610971576040517f08c379a000000000000000000000000000000000000000000000000000000000815260040161096890612e1c565b60405180910390fd5b600360008373ffffffffffffffffffffffffffffffffffffffff1673ffffffffffffffffffffffffffffffffffffffff168152602001908152602001600020549050919050565b6109c0611295565b73ffffffffffffffffffffffffffffffffffffffff166109de610a48565b73ffffffffffffffffffffffffffffffffffffffff1614610a34576040517f08c379a0000000000000000000000000000000000000000000000000000000008152600401610a2b90612edc565b60405180910390fd5b610a3e600061169b565b565b600047905090565b6000600760009054906101000a900473ffffffffffffffffffffffffffffffffffffffff16905090565b606060018054610a81906131db565b80601f0160208091040260200160405190810160405280929190818152602001828054610aad906131db565b8015610afa5780601f10610acf57610100808354040283529160200191610afa565b820191906000526020600020905b815481529060010190602001808311610add57829003601f168201915b5050505050905090565b610b16610b0f611295565b8383611761565b5050565b600066b1a2bc2ec50000905090565b610b3a610b34611295565b83611356565b610b79576040517f08c379a0000000000000000000000000000000000000000000000000000000008152600401610b7090612f3c565b60405180910390fd5b610b85848484846118ce565b50505050565b6060610b9682611229565b610bd5576040517f08c379a0000000000000000000000000000000000000000000000000000000008152600401610bcc90612e9c565b60405180910390fd5b6000600660008481526020019081526020016000208054610bf5906131db565b80601f0160208091040260200160405190810160405280929190818152602001828054610c21906131db565b8015610c6e5780601f10610c4357610100808354040283529160200191610c6e565b820191906000526020600020905b815481529060010190602001808311610c5157829003601f168201915b505050505090506000610c7f61192a565b9050600081511415610c95578192505050610cd8565b600082511115610cca578082604051602001610cb2929190612b08565b60405160208183030381529060405292505050610cd8565b610cd384611941565b925050505b919050565b66b1a2bc2ec500003411610cf0346119e8565b610d0066b1a2bc2ec500006119e8565b604051602001610d11929190612bd7565b60405160208183030381529060405290610d61576040517f08c379a0000000000000000000000000000000000000000000000000000000008152600401610d589190612cbc565b60405180910390fd5b506000610d6e6008611b95565b90506000610d7b826119e8565b604051602001610d8b9190612b4e565b60405160208183030381529060405290506000610da783611008565b90506000610dd58383604051602001610dc1929190612b70565b604051602081830303815290604052611ba3565b9050600081604051602001610dea9190612bb5565b6040516020818303038152906040529050610e053386611d61565b610e0f8582611d7f565b610e196008611df3565b610e3c604051806060016040528060258152602001613b50602591398633611e09565b7fa14d70da0581da0c27594beb756f0b6339865c7f2c00f9a35ebfc8fbeeb428a83386604051610e6d929190612c78565b60405180910390a15050505050565b6000600560008473ffffffffffffffffffffffffffffffffffffffff1673ffffffffffffffffffffffffffffffffffffffff16815260200190815260200160002060008373ffffffffffffffffffffffffffffffffffffffff1673ffffffffffffffffffffffffffffffffffffffff16815260200190815260200160002060009054906101000a900460ff16905092915050565b610f18611295565b73ffffffffffffffffffffffffffffffffffffffff16610f36610a48565b73ffffffffffffffffffffffffffffffffffffffff1614610f8c576040517f08c379a0000000000000000000000000000000000000000000000000000000008152600401610f8390612edc565b60405180910390fd5b600073ffffffffffffffffffffffffffffffffffffffff168173ffffffffffffffffffffffffffffffffffffffff161415610ffc576040517f08c379a0000000000000000000000000000000000000000000000000000000008152600401610ff390612d3c565b60405180910390fd5b6110058161169b565b50565b6060600061103c611018846119e8565b6040516020016110289190612b2c565b604051602081830303815290604052611ea8565b90506009805490508161104f9190613287565b90506009818154811061108b577f4e487b7100000000000000000000000000000000000000000000000000000000600052603260045260246000fd5b9060005260206000200180546110a0906131db565b80601f01602080910402602001604051908101604052809291908181526020018280546110cc906131db565b80156111195780601f106110ee57610100808354040283529160200191611119565b820191906000526020600020905b8154815290600101906020018083116110fc57829003601f168201915b5050505050915050919050565b6111bc8160405160240161113a9190612cbc565b6040516020818303038152906040527f41304fac000000000000000000000000000000000000000000000000000000007bffffffffffffffffffffffffffffffffffffffffffffffffffffffff19166020820180517bffffffffffffffffffffffffffffffffffffffffffffffffffffffff8381831617835250505050611edb565b50565b60007f01ffc9a7000000000000000000000000000000000000000000000000000000007bffffffffffffffffffffffffffffffffffffffffffffffffffffffff1916827bffffffffffffffffffffffffffffffffffffffffffffffffffffffff1916149050919050565b60008073ffffffffffffffffffffffffffffffffffffffff166002600084815260200190815260200160002060009054906101000a900473ffffffffffffffffffffffffffffffffffffffff1673ffffffffffffffffffffffffffffffffffffffff1614159050919050565b600033905090565b816004600083815260200190815260200160002060006101000a81548173ffffffffffffffffffffffffffffffffffffffff021916908373ffffffffffffffffffffffffffffffffffffffff160217905550808273ffffffffffffffffffffffffffffffffffffffff166113108361084e565b73ffffffffffffffffffffffffffffffffffffffff167f8c5be1e5ebec7d5bd14f71427d1e84f3dd0314c0f7b2291e5b200ac8c7c3b92560405160405180910390a45050565b600061136182611229565b6113a0576040517f08c379a000000000000000000000000000000000000000000000000000000000815260040161139790612ddc565b60405180910390fd5b60006113ab8361084e565b90508073ffffffffffffffffffffffffffffffffffffffff168473ffffffffffffffffffffffffffffffffffffffff1614806113ed57506113ec8185610e7c565b5b8061142b57508373ffffffffffffffffffffffffffffffffffffffff1661141384610631565b73ffffffffffffffffffffffffffffffffffffffff16145b91505092915050565b8273ffffffffffffffffffffffffffffffffffffffff166114548261084e565b73ffffffffffffffffffffffffffffffffffffffff16146114aa576040517f08c379a00000000000000000000000000000000000000000000000000000000081526004016114a190612d5c565b60405180910390fd5b600073ffffffffffffffffffffffffffffffffffffffff168273ffffffffffffffffffffffffffffffffffffffff16141561151a576040517f08c379a000000000000000000000000000000000000000000000000000000000815260040161151190612d9c565b60405180910390fd5b611525838383611f04565b61153060008261129d565b6001600360008573ffffffffffffffffffffffffffffffffffffffff1673ffffffffffffffffffffffffffffffffffffffff168152602001908152602001600020600082825461158091906130f1565b925050819055506001600360008473ffffffffffffffffffffffffffffffffffffffff1673ffffffffffffffffffffffffffffffffffffffff16815260200190815260200160002060008282546115d79190613010565b92505081905550816002600083815260200190815260200160002060006101000a81548173ffffffffffffffffffffffffffffffffffffffff021916908373ffffffffffffffffffffffffffffffffffffffff160217905550808273ffffffffffffffffffffffffffffffffffffffff168473ffffffffffffffffffffffffffffffffffffffff167fddf252ad1be2c89b69c2b068fc378daa952ba7f163c4a11628f55a4df523b3ef60405160405180910390a4611696838383611f09565b505050565b6000600760009054906101000a900473ffffffffffffffffffffffffffffffffffffffff16905081600760006101000a81548173ffffffffffffffffffffffffffffffffffffffff021916908373ffffffffffffffffffffffffffffffffffffffff1602179055508173ffffffffffffffffffffffffffffffffffffffff168173ffffffffffffffffffffffffffffffffffffffff167f8be0079c531659141344cd1fd0a4f28419497f9722a3daafe3b4186f6b6457e060405160405180910390a35050565b8173ffffffffffffffffffffffffffffffffffffffff168373ffffffffffffffffffffffffffffffffffffffff1614156117d0576040517f08c379a00000000000000000000000000000000000000000000000000000000081526004016117c790612dbc565b60405180910390fd5b80600560008573ffffffffffffffffffffffffffffffffffffffff1673ffffffffffffffffffffffffffffffffffffffff16815260200190815260200160002060008473ffffffffffffffffffffffffffffffffffffffff1673ffffffffffffffffffffffffffffffffffffffff16815260200190815260200160002060006101000a81548160ff0219169083151502179055508173ffffffffffffffffffffffffffffffffffffffff168373ffffffffffffffffffffffffffffffffffffffff167f17307eab39ab6107e8899845ad3d59bd9653f200f220920489ca2b5937696c31836040516118c19190612ca1565b60405180910390a3505050565b6118d9848484611434565b6118e584848484611f0e565b611924576040517f08c379a000000000000000000000000000000000000000000000000000000000815260040161191b90612d1c565b60405180910390fd5b50505050565b606060405180602001604052806000815250905090565b606061194c82611229565b61198b576040517f08c379a000000000000000000000000000000000000000000000000000000000815260040161198290612efc565b60405180910390fd5b600061199561192a565b905060008151116119b557604051806020016040528060008152506119e0565b806119bf846119e8565b6040516020016119d0929190612b08565b6040516020818303038152906040525b915050919050565b60606000821415611a30576040518060400160405280600181526020017f30000000000000000000000000000000000000000000000000000000000000008152509050611b90565b600082905060005b60008214611a62578080611a4b9061323e565b915050600a82611a5b9190613066565b9150611a38565b60008167ffffffffffffffff811115611aa4577f4e487b7100000000000000000000000000000000000000000000000000000000600052604160045260246000fd5b6040519080825280601f01601f191660200182016040528015611ad65781602001600182028036833780820191505090505b5090505b60008514611b8957600182611aef91906130f1565b9150600a85611afe9190613287565b6030611b0a9190613010565b60f81b818381518110611b46577f4e487b7100000000000000000000000000000000000000000000000000000000600052603260045260246000fd5b60200101907effffffffffffffffffffffffffffffffffffffffffffffffffffffffffffff1916908160001a905350600a85611b829190613066565b9450611ada565b8093505050505b919050565b600081600001549050919050565b60606000825190506000811415611bcc5760405180602001604052806000815250915050611d5c565b60006003600283611bdd9190613010565b611be79190613066565b6004611bf39190613097565b90506000602082611c049190613010565b67ffffffffffffffff811115611c43577f4e487b7100000000000000000000000000000000000000000000000000000000600052604160045260246000fd5b6040519080825280601f01601f191660200182016040528015611c755781602001600182028036833780820191505090505b5090506000604051806060016040528060408152602001613b75604091399050600181016020830160005b86811015611d195760038101905062ffffff818a015116603f8160121c168401518060081b905060ff603f83600c1c1686015116810190508060081b905060ff603f8360061c1686015116810190508060081b905060ff603f831686015116810190508060e01b90508084526004840193505050611ca0565b506003860660018114611d335760028114611d4357611d4e565b613d3d60f01b6002830352611d4e565b603d60f81b60018303525b508484525050819450505050505b919050565b611d7b8282604051806020016040528060008152506120a5565b5050565b611d8882611229565b611dc7576040517f08c379a0000000000000000000000000000000000000000000000000000000008152600401611dbe90612e5c565b60405180910390fd5b80600660008481526020019081526020016000209080519060200190611dee9291906122fd565b505050565b6001816000016000828254019250508190555050565b611ea3838383604051602401611e2193929190612cde565b6040516020818303038152906040527fe3849f79000000000000000000000000000000000000000000000000000000007bffffffffffffffffffffffffffffffffffffffffffffffffffffffff19166020820180517bffffffffffffffffffffffffffffffffffffffffffffffffffffffff8381831617835250505050611edb565b505050565b600081604051602001611ebb9190612af1565b6040516020818303038152906040528051906020012060001c9050919050565b60008151905060006a636f6e736f6c652e6c6f679050602083016000808483855afa5050505050565b505050565b505050565b6000611f2f8473ffffffffffffffffffffffffffffffffffffffff16612100565b15612098578373ffffffffffffffffffffffffffffffffffffffff1663150b7a02611f58611295565b8786866040518563ffffffff1660e01b8152600401611f7a9493929190612c2c565b602060405180830381600087803b158015611f9457600080fd5b505af1925050508015611fc557506040513d601f19601f82011682018060405250810190611fc29190612641565b60015b612048573d8060008114611ff5576040519150601f19603f3d011682016040523d82523d6000602084013e611ffa565b606091505b50600081511415612040576040517f08c379a000000000000000000000000000000000000000000000000000000000815260040161203790612d1c565b60405180910390fd5b805181602001fd5b63150b7a0260e01b7bffffffffffffffffffffffffffffffffffffffffffffffffffffffff1916817bffffffffffffffffffffffffffffffffffffffffffffffffffffffff19161491505061209d565b600190505b949350505050565b6120af8383612123565b6120bc6000848484611f0e565b6120fb576040517f08c379a00000000000000000000000000000000000000000000000000000000081526004016120f290612d1c565b60405180910390fd5b505050565b6000808273ffffffffffffffffffffffffffffffffffffffff163b119050919050565b600073ffffffffffffffffffffffffffffffffffffffff168273ffffffffffffffffffffffffffffffffffffffff161415612193576040517f08c379a000000000000000000000000000000000000000000000000000000000815260040161218a90612e7c565b60405180910390fd5b61219c81611229565b156121dc576040517f08c379a00000000000000000000000000000000000000000000000000000000081526004016121d390612d7c565b60405180910390fd5b6121e860008383611f04565b6001600360008473ffffffffffffffffffffffffffffffffffffffff1673ffffffffffffffffffffffffffffffffffffffff16815260200190815260200160002060008282546122389190613010565b92505081905550816002600083815260200190815260200160002060006101000a81548173ffffffffffffffffffffffffffffffffffffffff021916908373ffffffffffffffffffffffffffffffffffffffff160217905550808273ffffffffffffffffffffffffffffffffffffffff16600073ffffffffffffffffffffffffffffffffffffffff167fddf252ad1be2c89b69c2b068fc378daa952ba7f163c4a11628f55a4df523b3ef60405160405180910390a46122f960008383611f09565b5050565b828054612309906131db565b90600052602060002090601f01602090048101928261232b5760008555612372565b82601f1061234457805160ff1916838001178555612372565b82800160010185558215612372579182015b82811115612371578251825591602001919060010190612356565b5b50905061237f9190612383565b5090565b5b8082111561239c576000816000905550600101612384565b5090565b60006123b36123ae84612f9c565b612f77565b9050828152602081018484840111156123cb57600080fd5b6123d6848285613199565b509392505050565b6000813590506123ed81613af3565b92915050565b60008135905061240281613b0a565b92915050565b60008135905061241781613b21565b92915050565b60008151905061242c81613b21565b92915050565b600082601f83011261244357600080fd5b81356124538482602086016123a0565b91505092915050565b60008135905061246b81613b38565b92915050565b60006020828403121561248357600080fd5b6000612491848285016123de565b91505092915050565b600080604083850312156124ad57600080fd5b60006124bb858286016123de565b92505060206124cc858286016123de565b9150509250929050565b6000806000606084860312156124eb57600080fd5b60006124f9868287016123de565b935050602061250a868287016123de565b925050604061251b8682870161245c565b9150509250925092565b6000806000806080858703121561253b57600080fd5b6000612549878288016123de565b945050602061255a878288016123de565b935050604061256b8782880161245c565b925050606085013567ffffffffffffffff81111561258857600080fd5b61259487828801612432565b91505092959194509250565b600080604083850312156125b357600080fd5b60006125c1858286016123de565b92505060206125d2858286016123f3565b9150509250929050565b600080604083850312156125ef57600080fd5b60006125fd858286016123de565b925050602061260e8582860161245c565b9150509250929050565b60006020828403121561262a57600080fd5b600061263884828501612408565b91505092915050565b60006020828403121561265357600080fd5b60006126618482850161241d565b91505092915050565b60006020828403121561267c57600080fd5b600061268a8482850161245c565b91505092915050565b61269c81613125565b82525050565b6126ab81613137565b82525050565b60006126bc82612fcd565b6126c68185612fe3565b93506126d68185602086016131a8565b6126df81613374565b840191505092915050565b60006126f582612fd8565b6126ff8185612ff4565b935061270f8185602086016131a8565b61271881613374565b840191505092915050565b600061272e82612fd8565b6127388185613005565b93506127488185602086016131a8565b80840191505092915050565b6000612761603283612ff4565b915061276c82613385565b604082019050919050565b6000612784602683612ff4565b915061278f826133d4565b604082019050919050565b60006127a7602583612ff4565b91506127b282613423565b604082019050919050565b60006127ca601c83612ff4565b91506127d582613472565b602082019050919050565b60006127ed602483612ff4565b91506127f88261349b565b604082019050919050565b6000612810601983612ff4565b915061281b826134ea565b602082019050919050565b6000612833602c83612ff4565b915061283e82613513565b604082019050919050565b6000612856600583613005565b915061286182613562565b600582019050919050565b6000612879600e83613005565b91506128848261358b565b600e82019050919050565b600061289c60cf83613005565b91506128a7826135b4565b60cf82019050919050565b60006128bf603883612ff4565b91506128ca826136c1565b604082019050919050565b60006128e2602a83612ff4565b91506128ed82613710565b604082019050919050565b6000612905602983612ff4565b91506129108261375f565b604082019050919050565b6000612928602e83612ff4565b9150612933826137ae565b604082019050919050565b600061294b601483613005565b9150612956826137fd565b601482019050919050565b600061296e600283613005565b915061297982613826565b600282019050919050565b6000612991602083612ff4565b915061299c8261384f565b602082019050919050565b60006129b4603183612ff4565b91506129bf82613878565b604082019050919050565b60006129d7602c83612ff4565b91506129e2826138c7565b604082019050919050565b60006129fa602083612ff4565b9150612a0582613916565b602082019050919050565b6000612a1d602f83612ff4565b9150612a288261393f565b604082019050919050565b6000612a40600a83613005565b9150612a4b8261398e565b600a82019050919050565b6000612a63602183612ff4565b9150612a6e826139b7565b604082019050919050565b6000612a86601d83613005565b9150612a9182613a06565b601d82019050919050565b6000612aa9604a83613005565b9150612ab482613a2f565b604a82019050919050565b6000612acc603183612ff4565b9150612ad782613aa4565b604082019050919050565b612aeb8161318f565b82525050565b6000612afd8284612723565b915081905092915050565b6000612b148285612723565b9150612b208284612723565b91508190509392505050565b6000612b3782612849565b9150612b438284612723565b915081905092915050565b6000612b598261286c565b9150612b658284612723565b915081905092915050565b6000612b7b82612a33565b9150612b878285612723565b9150612b928261288f565b9150612b9e8284612723565b9150612ba982612961565b91508190509392505050565b6000612bc082612a79565b9150612bcc8284612723565b915081905092915050565b6000612be282612a9c565b9150612bee8285612723565b9150612bf98261293e565b9150612c058284612723565b91508190509392505050565b6000602082019050612c266000830184612693565b92915050565b6000608082019050612c416000830187612693565b612c4e6020830186612693565b612c5b6040830185612ae2565b8181036060830152612c6d81846126b1565b905095945050505050565b6000604082019050612c8d6000830185612693565b612c9a6020830184612ae2565b9392505050565b6000602082019050612cb660008301846126a2565b92915050565b60006020820190508181036000830152612cd681846126ea565b905092915050565b60006060820190508181036000830152612cf881866126ea565b9050612d076020830185612ae2565b612d146040830184612693565b949350505050565b60006020820190508181036000830152612d3581612754565b9050919050565b60006020820190508181036000830152612d5581612777565b9050919050565b60006020820190508181036000830152612d758161279a565b9050919050565b60006020820190508181036000830152612d95816127bd565b9050919050565b60006020820190508181036000830152612db5816127e0565b9050919050565b60006020820190508181036000830152612dd581612803565b9050919050565b60006020820190508181036000830152612df581612826565b9050919050565b60006020820190508181036000830152612e15816128b2565b9050919050565b60006020820190508181036000830152612e35816128d5565b9050919050565b60006020820190508181036000830152612e55816128f8565b9050919050565b60006020820190508181036000830152612e758161291b565b9050919050565b60006020820190508181036000830152612e9581612984565b9050919050565b60006020820190508181036000830152612eb5816129a7565b9050919050565b60006020820190508181036000830152612ed5816129ca565b9050919050565b60006020820190508181036000830152612ef5816129ed565b9050919050565b60006020820190508181036000830152612f1581612a10565b9050919050565b60006020820190508181036000830152612f3581612a56565b9050919050565b60006020820190508181036000830152612f5581612abf565b9050919050565b6000602082019050612f716000830184612ae2565b92915050565b6000612f81612f92565b9050612f8d828261320d565b919050565b6000604051905090565b600067ffffffffffffffff821115612fb757612fb6613345565b5b612fc082613374565b9050602081019050919050565b600081519050919050565b600081519050919050565b600082825260208201905092915050565b600082825260208201905092915050565b600081905092915050565b600061301b8261318f565b91506130268361318f565b9250827fffffffffffffffffffffffffffffffffffffffffffffffffffffffffffffffff0382111561305b5761305a6132b8565b5b828201905092915050565b60006130718261318f565b915061307c8361318f565b92508261308c5761308b6132e7565b5b828204905092915050565b60006130a28261318f565b91506130ad8361318f565b9250817fffffffffffffffffffffffffffffffffffffffffffffffffffffffffffffffff04831182151516156130e6576130e56132b8565b5b828202905092915050565b60006130fc8261318f565b91506131078361318f565b92508282101561311a576131196132b8565b5b828203905092915050565b60006131308261316f565b9050919050565b60008115159050919050565b60007fffffffff0000000000000000000000000000000000000000000000000000000082169050919050565b600073ffffffffffffffffffffffffffffffffffffffff82169050919050565b6000819050919050565b82818337600083830152505050565b60005b838110156131c65780820151818401526020810190506131ab565b838111156131d5576000848401525b50505050565b600060028204905060018216806131f357607f821691505b6020821081141561320757613206613316565b5b50919050565b61321682613374565b810181811067ffffffffffffffff8211171561323557613234613345565b5b80604052505050565b60006132498261318f565b91507fffffffffffffffffffffffffffffffffffffffffffffffffffffffffffffffff82141561327c5761327b6132b8565b5b600182019050919050565b60006132928261318f565b915061329d8361318f565b9250826132ad576132ac6132e7565b5b828206905092915050565b7f4e487b7100000000000000000000000000000000000000000000000000000000600052601160045260246000fd5b7f4e487b7100000000000000000000000000000000000000000000000000000000600052601260045260246000fd5b7f4e487b7100000000000000000000000000000000000000000000000000000000600052602260045260246000fd5b7f4e487b7100000000000000000000000000000000000000000000000000000000600052604160045260246000fd5b6000601f19601f8301169050919050565b7f4552433732313a207472616e7366657220746f206e6f6e20455243373231526560008201527f63656976657220696d706c656d656e7465720000000000000000000000000000602082015250565b7f4f776e61626c653a206e6577206f776e657220697320746865207a65726f206160008201527f6464726573730000000000000000000000000000000000000000000000000000602082015250565b7f4552433732313a207472616e736665722066726f6d20696e636f72726563742060008201527f6f776e6572000000000000000000000000000000000000000000000000000000602082015250565b7f4552433732313a20746f6b656e20616c7265616479206d696e74656400000000600082015250565b7f4552433732313a207472616e7366657220746f20746865207a65726f2061646460008201527f7265737300000000000000000000000000000000000000000000000000000000602082015250565b7f4552433732313a20617070726f766520746f2063616c6c657200000000000000600082015250565b7f4552433732313a206f70657261746f7220717565727920666f72206e6f6e657860008201527f697374656e7420746f6b656e0000000000000000000000000000000000000000602082015250565b7f4d41464941000000000000000000000000000000000000000000000000000000600082015250565b7f4d61666961204d6f6e6b65792023000000000000000000000000000000000000600082015250565b7f222c20226465736372697074696f6e223a20224120686967686c79206163636c60008201527f61696d656420636f6c6c656374696f6e206f66204d61666961204d6f6e6b657960208201527f732067656e657261746564206f6e6c696e652062792044414c4c2d45204d696e60408201527f692c20616e20696d6167652067656e657261746f722041727469666963616c2060608201527f496e74656c6c6967656e6365202868747470733a2f2f68756767696e6766616360808201527f652e636f2f7370616365732f64616c6c652d6d696e692f64616c6c652d6d696e60a08201527f6929222c2022696d616765223a2022000000000000000000000000000000000060c082015250565b7f4552433732313a20617070726f76652063616c6c6572206973206e6f74206f7760008201527f6e6572206e6f7220617070726f76656420666f7220616c6c0000000000000000602082015250565b7f4552433732313a2062616c616e636520717565727920666f7220746865207a6560008201527f726f206164647265737300000000000000000000000000000000000000000000602082015250565b7f4552433732313a206f776e657220717565727920666f72206e6f6e657869737460008201527f656e7420746f6b656e0000000000000000000000000000000000000000000000602082015250565b7f45524337323155524953746f726167653a2055524920736574206f66206e6f6e60008201527f6578697374656e7420746f6b656e000000000000000000000000000000000000602082015250565b7f2c20627574206d696e7420707269636520697320000000000000000000000000600082015250565b7f227d000000000000000000000000000000000000000000000000000000000000600082015250565b7f4552433732313a206d696e7420746f20746865207a65726f2061646472657373600082015250565b7f45524337323155524953746f726167653a2055524920717565727920666f722060008201527f6e6f6e6578697374656e7420746f6b656e000000000000000000000000000000602082015250565b7f4552433732313a20617070726f76656420717565727920666f72206e6f6e657860008201527f697374656e7420746f6b656e0000000000000000000000000000000000000000602082015250565b7f4f776e61626c653a2063616c6c6572206973206e6f7420746865206f776e6572600082015250565b7f4552433732314d657461646174613a2055524920717565727920666f72206e6f60008201527f6e6578697374656e7420746f6b656e0000000000000000000000000000000000602082015250565b7f7b226e616d65223a202200000000000000000000000000000000000000000000600082015250565b7f4552433732313a20617070726f76616c20746f2063757272656e74206f776e6560008201527f7200000000000000000000000000000000000000000000000000000000000000602082015250565b7f646174613a6170706c69636174696f6e2f6a736f6e3b6261736536342c000000600082015250565b7f596f7520646f6e74206861766520656e6f756768206d6f6e657920746f206d6960008201527f6e742061204d61666961204d6f6e6b65792c207520706f6f722062697463683b60208201527f20796f752073656e742000000000000000000000000000000000000000000000604082015250565b7f4552433732313a207472616e736665722063616c6c6572206973206e6f74206f60008201527f776e6572206e6f7220617070726f766564000000000000000000000000000000602082015250565b613afc81613125565b8114613b0757600080fd5b50565b613b1381613137565b8114613b1e57600080fd5b50565b613b2a81613143565b8114613b3557600080fd5b50565b613b418161318f565b8114613b4c57600080fd5b5056fe416e204e465420772f20494420257320686173206265656e206d696e74656420746f2025734142434445464748494a4b4c4d4e4f505152535455565758595a6162636465666768696a6b6c6d6e6f707172737475767778797a303132333435363738392b2fa26469706673582212201028c51220dd4cc7d59b89b197ef1bfbf302e8cf219aa7a91c81435175dde99f64736f6c6343000801003368747470733a2f2f676174657761792e70696e6174612e636c6f75642f697066732f516d586f757a77636a4d4731584d52484771426769626d674e65366a5958784651633774315a716d57596f4657712f4d616669612f31302e706e6768747470733a2f2f676174657761792e70696e6174612e636c6f75642f697066732f516d586f757a77636a4d4731584d52484771426769626d674e65366a5958784651633774315a716d57596f4657712f4d616669612f30372e706e6768747470733a2f2f676174657761792e70696e6174612e636c6f75642f697066732f516d586f757a77636a4d4731584d52484771426769626d674e65366a5958784651633774315a716d57596f4657712f4d616669612f31342e706e6768747470733a2f2f676174657761792e70696e6174612e636c6f75642f697066732f516d586f757a77636a4d4731584d52484771426769626d674e65366a5958784651633774315a716d57596f4657712f4d616669612f31362e706e6768747470733a2f2f676174657761792e70696e6174612e636c6f75642f697066732f516d586f757a77636a4d4731584d52484771426769626d674e65366a5958784651633774315a716d57596f4657712f4d616669612f30392e706e6768747470733a2f2f676174657761792e70696e6174612e636c6f75642f697066732f516d586f757a77636a4d4731584d52484771426769626d674e65366a5958784651633774315a716d57596f4657712f4d616669612f32322e706e6768747470733a2f2f676174657761792e70696e6174612e636c6f75642f697066732f516d586f757a77636a4d4731584d52484771426769626d674e65366a5958784651633774315a716d57596f4657712f4d616669612f31352e706e6768747470733a2f2f676174657761792e70696e6174612e636c6f75642f697066732f516d586f757a77636a4d4731584d52484771426769626d674e65366a5958784651633774315a716d57596f4657712f4d616669612f30352e706e6768747470733a2f2f676174657761792e70696e6174612e636c6f75642f697066732f516d586f757a77636a4d4731584d52484771426769626d674e65366a5958784651633774315a716d57596f4657712f4d616669612f31312e706e6768747470733a2f2f676174657761792e70696e6174612e636c6f75642f697066732f516d586f757a77636a4d4731584d52484771426769626d674e65366a5958784651633774315a716d57596f4657712f4d616669612f32312e706e6768747470733a2f2f676174657761792e70696e6174612e636c6f75642f697066732f516d586f757a77636a4d4731584d52484771426769626d674e65366a5958784651633774315a716d57596f4657712f4d616669612f30312e706e6768747470733a2f2f676174657761792e70696e6174612e636c6f75642f697066732f516d586f757a77636a4d4731584d52484771426769626d674e65366a5958784651633774315a716d57596f4657712f4d616669612f30332e706e6768747470733a2f2f676174657761792e70696e6174612e636c6f75642f697066732f516d586f757a77636a4d4731584d52484771426769626d674e65366a5958784651633774315a716d57596f4657712f4d616669612f31332e706e6768747470733a2f2f676174657761792e70696e6174612e636c6f75642f697066732f516d586f757a77636a4d4731584d52484771426769626d674e65366a5958784651633774315a716d57596f4657712f4d616669612f30362e706e6768747470733a2f2f676174657761792e70696e6174612e636c6f75642f697066732f516d586f757a77636a4d4731584d52484771426769626d674e65366a5958784651633774315a716d57596f4657712f4d616669612f31322e706e6768747470733a2f2f676174657761792e70696e6174612e636c6f75642f697066732f516d586f757a77636a4d4731584d52484771426769626d674e65366a5958784651633774315a716d57596f4657712f4d616669612f31382e706e6768747470733a2f2f676174657761792e70696e6174612e636c6f75642f697066732f516d586f757a77636a4d4731584d52484771426769626d674e65366a5958784651633774315a716d57596f4657712f4d616669612f32302e706e6768747470733a2f2f676174657761792e70696e6174612e636c6f75642f697066732f516d586f757a77636a4d4731584d52484771426769626d674e65366a5958784651633774315a716d57596f4657712f4d616669612f31392e706e6768747470733a2f2f676174657761792e70696e6174612e636c6f75642f697066732f516d586f757a77636a4d4731584d52484771426769626d674e65366a5958784651633774315a716d57596f4657712f4d616669612f30322e706e6768747470733a2f2f676174657761792e70696e6174612e636c6f75642f697066732f516d586f757a77636a4d4731584d52484771426769626d674e65366a5958784651633774315a716d57596f4657712f4d616669612f31372e706e6768747470733a2f2f676174657761792e70696e6174612e636c6f75642f697066732f516d586f757a77636a4d4731584d52484771426769626d674e65366a5958784651633774315a716d57596f4657712f4d616669612f30382e706e6768747470733a2f2f676174657761792e70696e6174612e636c6f75642f697066732f516d586f757a77636a4d4731584d52484771426769626d674e65366a5958784651633774315a716d57596f4657712f4d616669612f30342e706e67",
  "linkReferences": {},
  "deployedLinkReferences": {}
}